:020000040800F2
:10000000580900202D150008250D0008270D0008AF
:100010002B0D00082F0D0008330D00080000000014
:10002000000000000000000000000000370D000884
:10003000390D0008000000003B0D00083D0D0008D0
:100040004715000847150008471500084715000820
:100050004715000847150008471500084715000810
:100060004715000847150008471500084715000800
:1000700047150008471500084715000847150008F0
:1000800047150008471500084715000847150008E0
:1000900047150008471500084715000847150008D0
:1000A00047150008471500084715000847150008C0
:1000B00047150008890C0008D70C000847150008F0
:1000C00047150008471500084715000847150008A0
:1000D00047150008B50B00081F0C0008471500085D
:1000E0004715000847150008471500084715000880
:1000F0004715000847150008471500084715000870
:10010000471500084715000847150008471500085F
:10011000471500084715000847150008471500084F
:10012000471500084715000847150008471500083F
:1001300000F002F800F04BF80AA090E8000C8244AE
:100140008344AAF10107DA4501D100F040F8AFF28B
:10015000090EBAE80F0013F0010F18BFFB1A43F0A5
:10016000010318474435000064350000103A24BFED
:1001700078C878C1FAD8520724BF30C830C144BF0C
:1001800004680C607047000000230024002500264E
:10019000103A28BF78C1FBD8520728BF30C148BFEA
:1001A0000B607047642902F05387732903F027819D
:1001B000002070471FB503F037FA0400002000212B
:1001C00003F04EFA401C60601FBD10B510BD03F077
:1001D00006FA1146FFF7EEFF00F06EFC03F036FA68
:1001E00003B4FFF7F2FF03BC01F0C0F830B5B3B0C1
:1001F0000024F9480078002873D0F8480288F849AC
:100200001AA802F0C3FF00201AA9F44A12888854E1
:10021000F4A11AA802F065FF041E0AD01434214686
:1002200001A802F070FF01A802F04EFFF349086038
:1002300042E0F3A11AA802F054FF041E17D01034B4
:10024000214601A802F05FFFF2A101A803F006F821
:1002500018B10020E94908712EE0F0A101A802F0D0
:10026000FDFF002828D00120E449087124E0EDA119
:100270001AA802F036FF041E0AD01534214601A840
:1002800002F041FF01A802F01FFFDC49C88013E023
:10029000EAA11AA802F025FF041E0DD1ECA11AA8AC
:1002A00002F01FFF041E07D0D44890F83200022845
:1002B00002D10A20EB490870EBA1C94802F011FFF6
:1002C000041E0FD0CD48EEA1026801A802F04EFE38
:1002D00001A802F03CFFC5B2294601A801F0EDF8E3
:1002E00035E037E0E7A1BE4802F0FBFE041E1AD05D
:1002F000C248007910B101280AD104E0C5A101A8C3
:1003000002F001FF05E0C5A101A802F0FCFE00E03B
:1003100000BF00BF01A802F01AFFC5B2294601A81C
:1003200001F0CBF813E0DCA1AD4802F0DAFE041EC8
:100330000DD0B248C288D2A101A802F017FE01A8D0
:1003400002F005FFC5B2294601A801F0B6F8002069
:10035000A149087033B030BD30B59FB00546D548CF
:1003600000780F287DD2DFE800F008092432577D9D
:10037000A2C7F3F1F0EFEEEDEC00B5E2CE48007865
:1003800028B900F087FE0120CB49087010E0CB4867
:10039000007868B1CAA1CD4800F007FF28B102205B
:1003A000C44908700020C44908700020C34908707F
:1003B0009AE2C148007818B90120BF49087005E0E9
:1003C0000320BC4908700020BB4908708CE2BA4881
:1003D000007878B9BEA1C04802F095FEBE4802F090
:1003E000B6FEC4B22146BC4801F080F80120B249F3
:1003F000087010E0B148007868B1B8A1B34800F0C7
:10040000D4FE28B10420AB4908700020AA49087026
:100410000020AA49087067E2A748007878B9B0A11F
:10042000AD4802F070FEAC4802F091FEC4B2214625
:10043000A94801F05BF801209F49087010E09F482F
:10044000007868B1A5A1A14800F0AFFE28B1052051
:100450009849087000209849087000209749087052
:1004600042E240E29448007878B99FA19A4802F0AD
:100470004AFE994802F06BFEC4B22146964801F04C
:1004800035F801208C49087010E08C48007868B17C
:1004900092A18E4800F089FE28B106208549087097
:1004A0000020854908700020844908701CE28248B9
:1004B000007878B98FA1884802F025FE864802F0BE
:1004C00046FEC4B22146844801F010F801207A4962
:1004D000087010E07948007868B180A17B4800F08E
:1004E00064FE28B107207349087000207249087023
:1004F000002072490870F7E16F48007878B980A150
:10050000754802F000FE744802F021FEC4B2214694
:10051000714800F0EBFF01206749087010E0674860
:10052000007868B16DA1694800F03FFE28B108204D
:100530006049087000206049087000205F49087019
:10054000D2E19DE176E14FE129E102E12FE0FFE711
:1005500059480078A8B96D486DA1026801A802F059
:1005600005FD01A95C4802F0CEFD5B4802F0EFFDFD
:10057000C4B22146584800F0B9FF01204E49087026
:1005800014E04E48007888B154A1504800F00DFEA8
:1005900030B109204749087000204749087002E03F
:1005A0000020454908700020444908709CE14248F9
:1005B000007878B95AA1484802F0A5FD464802F0F3
:1005C000C6FDC4B22146444800F090FF01203A49DC
:1005D0000870BDE0AAE000000000002072000020CA
:1005E000680100204454555F4346475F42415544EB
:1005F000524154455345543D00000000080000207E
:100600004454555F4346475F504F52545345543D01
:10061000000000005253323332000000525334388D
:10062000350000004454555F4346475F48454152FA
:100630005454494D455345543D0000004454555FC2
:100640004346475F474F47505253434647000000D9
:100650004454555F4346475F455849544346474DC8
:100660004F444500020000204454555F4346475F15
:1006700042415544524154454745543D3F000000D6
:10068000256400004454555F4346475F504F525421
:100690004745543D3F0000005354525F4454555F5A
:1006A0004346475F484541525454494D4547455498
:1006B0003D3F000003000020450000200100002015
:1006C000534D5320526561647900000030020020D0
:1006D00041540D0A00000000040100204F4B0000AF
:1006E000415445300D0A000041542B4353510D0A2B
:1006F0000000000041542B435245473F0D0A0000C3
:1007000041542B43474154543F0D0A0064000020DC
:1007100041542B435354543D222573220D0A0000AB
:1007200041542B43494943520D0A0000F2480078D6
:1007300070B1AFF25801F14800F037FD28B10A203E
:10074000EF4908700020EF4908700020EA4908705E
:10075000CAE0EC48007878B9EBA1EE4802F0D3FC8F
:10076000EC4802F0F4FCC4B22146EA4800F0BEFEB8
:100770000120E449087011E0DF48007870B1AFF261
:10078000A401DE4800F011FD28B10B20DC490870FF
:100790000020DC4908700020D7490870A4E0D9483F
:1007A000007878B9DCA1DB4802F0ADFCD94802F052
:1007B000CEFCC4B22146D74800F098FE0120D149B2
:1007C000087010E0CC48007868B1D7A1CB4800F0A1
:1007D000ECFC28B10C20CA4908700020C9490870F7
:1007E0000020C54908707FE0C648007878B9D0A1DC
:1007F000C84802F088FCC74802F0A9FCC4B22146F0
:10080000C44800F073FE0120BE49087011E0BA48E8
:10081000007870B1AFF23C11B84800F0C6FC28B1C6
:100820000D20B74908700020B64908700020B24971
:10083000087059E0B348007878B9C1A1B54802F012
:1008400062FCB44802F083FCC4B22146B14800F017
:100850004DFE0120AB49087011E0A748007870B147
:10086000AFF28811A54800F0A0FC28B10E20A449E1
:1008700008700020A349087000209F49087033E0E9
:10088000A0480078C8B9B24800680090B148B2A248
:10089000B2A1036806A802F069FB06A99D4802F010
:1008A00032FC9C4802F053FCC4B22146994800F047
:1008B0001DFE01209349087014E08F48007888B12C
:1008C000AEA18E4800F071FC48B100208C49087040
:1008D0000120AD4981F8320000208A4908700020CB
:1008E0008549087000E000BF00BF1FB030BD7047F1
:1008F00010B5A64800780B287ED2DFE800F0060786
:1009000012383C56595A5B90B500D3E0A0480068B5
:1009100018B102209D49087002E003209B4908702D
:10092000C8E09C48007858B900209949783108609F
:100930004FF47A7000F0EDFC01209649087015E044
:100940006D48007890B1AFF284216C4800F02DFC26
:1009500048B101208E497831086004208B49087025
:1009600000208C490870002063490870A2E0042030
:10097000864908709EE08748007840B98248FFF7B2
:10098000B6FF01205E490870824908700CE05C489F
:10099000007818B10020FFF7DFFC05E008207B4954
:1009A000087000207B49087084E0FFF71FFC81E09D
:1009B00080E07FE078480078A8B178A1784802F01C
:1009C00090FB38B177480088032803D109206F498C
:1009D000087005E073480088C1B2714800F086FDD8
:1009E00000206D49087044480078B8B16BA14348B5
:1009F00002F077FB48B100E05BE06B480088032819
:100A000003D109206149087005E067480088C1B238
:100A10003A4800F052FD0020374908704AE05D482E
:100A2000007858B94FF4FA7000F073FC03215BA012
:100A300000F05CFD01205749087014E02E48007852
:100A400088B150A12D4800F0B0FB48B105204F49B6
:100A5000087002204C4981F8320000204D4908708E
:100A600000202549087025E04A48007858B94FF41D
:100A7000FA7000F04EFC05214CA000F037FD01207B
:100A80004449087014E01C48007888B13DA11B4817
:100A900000F08BFB48B108203C49087001203A491E
:100AA00081F8320000203B4908700020124908708C
:100AB00000E000BF00BF10BD00F0EEFB4FF4A060EF
:100AC00000F054FD4FF4E13000F05EFC4FF4E130F3
:100AD00000F0A6FC41F61F41632000F039FA41F610
:100AE0001F41632000F064FA00F096FA01E0FFF77E
:100AF000FFFEFCE770477047010000203002002035
:100B0000030000204500002041542B434946535226
:100B10000D0A00000401002041542B434950534862
:100B200055540D0A0000000053485554204F4B0007
:100B300041542B4349504D4F44453D310D0A00006F
:100B400041542B4349504D55583D300D0A0000008B
:100B5000600000205C0000205443500041542B43AF
:100B6000495053544152543D222573222C2225735F
:100B7000222C222573220D0A00000000434F4E4E06
:100B8000454354204F4B0000080000200200002085
:100B90001C81214244000020000000202B2B2B0050
:100BA00068010020720000207600002041544F0DA3
:100BB0000A00000010B540F22551614801F084FAA6
:100BC00038B36048008800F4004030B100205D492F
:100BD0000880C8215C4802F01EFB5A48008800F4D7
:100BE0000040B0B90021594801F0E2FE544801F03C
:100BF000EBF9C1B253480488601C524A1080524835
:100C000001550021514802F067F901214F4801F0D8
:100C1000CFFE40F225514A4801F080FA10BD10B5D0
:100C200040F225514A4801F04FFA38B3494800884C
:100C300000F4004030B1002046490880C8214648F1
:100C400002F0E9FA4348008800F40040B0B90021FE
:100C5000424801F0ADFE3E4801F0B6F9C1B23D4850
:100C60000488601C3B4A10803B48015500213B48EA
:100C700002F032F90121394801F09AFE40F2255183
:100C8000334801F04BFA10BD10B5002401212F4864
:100C900002F057F9D0B101212C4802F063F929483C
:100CA000008840F400402749088008460088C0F3C7
:100CB0000E002B49088001202A4908700021234892
:100CC00002F00AF90021214801F072FE01211F48BB
:100CD00002F048F910BD10B5002401211F4802F0B0
:100CE00030F9D0B101211D4802F03CF919480088C3
:100CF00040F400401749088008460088C0F30E0001
:100D0000194908800120194908700021134802F090
:100D1000E3F80021114801F04BFE01210F4802F0D9
:100D200021F910BD704700BFFEE700BFFEE700BF1E
:100D3000FEE700BFFEE7704770477047704700004E
:100D400000380140700000206801002000040040CD
:100D500000440040740000203002002000080040E1
:100D6000720000200000002076000020010000201A
:100D70000CB50020019000906C48006840F4803071
:100D80006A49086000BF6948006800F400300090BC
:100D90000198401C0190009818B90198B0F5A06F17
:100DA000F1D16248006800F4003010B101200090D9
:100DB00001E0002000900098012843D15C480068C1
:100DC00040F010005A4908600846006820F003000F
:100DD00008600846006840F0020008605348406818
:100DE000524948600846406848600846406840F4F8
:100DF000806048600846406820F47C1048600846DF
:100E0000406840F4E81048600846006840F0807090
:100E1000086000BF4548006800F000700028F9D065
:100E20004248406820F00300404948600846406856
:100E300040F00200486000BF3C48406800F00C00F1
:100E40000828F9D10CBD10B5FFF792FF10BD10B501
:100E50003648006840F001003449086008464068A0
:100E60003449084031494860084600683249084022
:100E70002E4908600846006820F480200860084673
:100E8000406820F4FE0048604FF41F008860FFF7C0
:100E9000DAFF4FF000602949086010BD10B500214D
:100EA00000200022214B5B6803F00C0121B10429D2
:100EB00006D0082928D107E0214B224C236027E0E7
:100EC0001F4B204C236023E0184B5B6803F4701029
:100ED000164B5B6803F48032022303EB904022B987
:100EE000194B4343174C23600DE0104B5B6803F430
:100EF000003323B1144B4343124C236003E0104BE7
:100F00004343104C236003E00D4B0E4C236000BFA5
:100F100000BF064B5B68C3F303130C4CE15C094B49
:100F20001B68CB40074C236010BD0000001002403E
:100F3000002002400000FFF8FFFFF6FE08ED00E091
:100F400000127A004800002000093D004C000020FB
:100F50007FB505460C460121022000F09EFEADF84B
:100F60000850ADF804400020ADF80600ADF80A00C6
:100F700001A9274801F0C0F91D208DF800000020CC
:100F80008DF8010001208DF802008DF803006846FD
:100F900000F0F1FA01211E4801F0E4FF01221146A0
:100FA0001B4801F020FD0021194801F001FD7FBD23
:100FB0007FB505460C460121042000F06EFEADF819
:100FC0000850ADF804400020ADF80600ADF80A0066
:100FD00001A9104801F090F91E208DF800000020B2
:100FE0008DF8010001208DF802008DF8030068469D
:100FF00000F0C1FA0121074801F0B4FF01221146B7
:10100000044801F0F0FC0021024801F0D1FC7FBD52
:10101000000400400008004008B50121082000F04D
:101020002FFE2020ADF8000010208DF803000320D3
:101030008DF802006946144800F066FB0120134950
:1010400008604020ADF8000010208DF80300032058
:101050008DF8020069460C4800F056FB01200C494F
:10106000C1F898018020ADF8000010208DF8030031
:1010700003208DF802006946034800F045FB01207B
:101080000249091D086008BD000C014094812142FD
:101090000080214210B50020494908604FF4967045
:1010A00000F037F901204749C1F898014FF49670D4
:1010B00000F02FF910BD10B50346002010BD00B59B
:1010C0009FB000BF642240A140A0FFF7F4FF0028BA
:1010D000F8D1C8223CA13EA0FFF7EDFF00BF4FF4BE
:1010E000FA723DA13FA0FFF7E6FF0028F7D100BF4D
:1010F0004FF4FA723EA141A0FFF7DDFF0028F7D1BF
:10110000414842A1026801A801F030FF00BF4FF43E
:10111000FA722DA101A8FFF7CEFF0028F7D100BF7A
:101120004FF4FA7228A13DA0FFF7C5FF0028F7D1C0
:1011300000BF4FF4FA723CA13CA0FFF7BCFF0028AF
:10114000F7D100BF4FF4FA723BA13DA0FFF7B3FF08
:101150000028F7D100BF4FF4FA721BA13BA0FFF7A4
:10116000AAFF0028F7D100BF4FF4FA7216A13AA0E7
:10117000FFF7A1FF0028F7D13B48006800903B48EB
:101180003BA23CA1036806A801F0F0FE4FF4FA620E
:101190003FA106A8FFF78FFF18B14FF0FF301FB037
:1011A00000BD0020FBE70020704770B504460D46E7
:1011B00000262946204601F094FF0646304670BDC1
:1011C00098812142008021424F4B00004154000091
:1011D00041544530000000002B43475245473A2018
:1011E000302C310041542B43475245473F0000000B
:1011F0002B43474154543A203100000041542B43C3
:10120000474154543F0000006400002041542B43E8
:101210005354543D222573220000000041542B43B7
:1012200049494352000000002E00000041542B4366
:10123000494653520000000053485554204F4B007C
:1012400041542B43495053485554000041542B43BB
:1012500049504D55583D300041542B4349504D4F56
:1012600044453D3100000000600000205C0000208B
:101270005443500041542B43495053544152543D20
:10128000222573222C222573222C22257322000072
:10129000434F4E4E4543540010B56FF0040000F02C
:1012A000B4F92E4800682E49B0FBF1F02D490870C2
:1012B0000846007800EB4001C1EBC0104FF6FF710B
:1012C00001EAC0002849088010BD0146254A12786D
:1012D0004A434FF0E0235A6100229A611A4612698C
:1012E00042F001021A6100BF4FF0E022106900F0E5
:1012F00001021AB100F48032002AF5D04FF0E0224A
:10130000126922F001024FF0E0231A6100229A6173
:1013100070470146144A12884A434FF0E0235A614D
:1013200000229A611A46126942F001021A6100BF56
:101330004FF0E022106900F001021AB100F480328F
:10134000002AF5D04FF0E022126922F001024FF09E
:10135000E0231A6100229A617047000048000020D3
:1013600000127A00680000206A00002000BF704769
:1013700000BF6B4A128802F04002002AF9D0C2B2C4
:10138000674B1B1D1A80704710B586B004460121BB
:1013900044F2040000F074FC4FF40070ADF8140047
:1013A00003208DF8160018208DF8170005A95D4858
:1013B00000F0AAF94FF48060ADF8140004208DF815
:1013C000170005A9574800F09FF925208DF8000067
:1013D00003208DF801008DF8020001208DF8030034
:1013E000684600F0C8F801940020ADF80800ADF898
:1013F0000A00ADF80C00ADF810000C20ADF80E009E
:1014000001A9474800F0E3FC012240F2255144487D
:1014100000F075FD0121424800F065FD06B010BDE9
:1014200010B586B004460121480400F036FC0121C5
:10143000042000F025FC0420ADF8140003208DF8F2
:10144000160018208DF8170005A9364800F05CF941
:101450000820ADF8140004208DF8170005A93148C4
:1014600000F052F926208DF8000003208DF80100CD
:101470008DF8020001208DF80300684600F07BF82B
:1014800001940020ADF80800ADF80A00ADF80C009A
:10149000ADF810000C20ADF80E0001A9224800F0B4
:1014A00096FC012240F225511F4800F028FD012141
:1014B0001D4800F018FD06B010BD70B505460E467B
:1014C000002410E04021164800F0F5FD295D144885
:1014D00000F076FD00BF4021114800F0DFFD01283B
:1014E000F9D1601C84B2B442ECDB70BD70B5054626
:1014F0000E46002410E040210B4800F0DCFD295D81
:10150000094800F05DFD00BF4021074800F0C6FD1E
:101510000128F9D1601C84B2B442ECDB70BD00003C
:10152000003801400008014000440040094880475D
:1015300009480047FEE7FEE7FEE7FEE7FEE7FEE7B5
:10154000FEE7FEE7FEE7FEE704480549054A064BCD
:10155000704700004F0E00083101000858030020BA
:101560005809002058050020580500203149014342
:10157000314A1160704770B5002100230F22C478F2
:1015800004B32D4C246804F4E064C4F5E064210A3B
:10159000C1F10403CA40447804FA03F1847814408A
:1015A00021430901254C0678A155047804F01F0554
:1015B0000124AC4005786D11AD0005F1E025C5F8BA
:1015C000004109E0047804F01F050124AC401C4DE3
:1015D0000678761145F8264070BD1A4A0A40024343
:1015E000154B1B1F1A60704739B1134A121D126840
:1015F0000243114B1B1D1A6006E00F4A121D1268B0
:1016000082430D4B1B1D1A607047042808D14FF010
:10161000E021096941F004014FF0E022116107E087
:101620004FF0E021096921F004014FF0E02211613F
:10163000704700000000FA050CED00E000E400E057
:1016400080E100E080FFFF1F10B50446CC488442D3
:1016500008D10121042000F02DFB0021042000F01E
:1016600029FB46E0C748844208D10121082000F048
:1016700021FB0021082000F01DFB3AE0C248844213
:1016800008D10121102000F015FB0021102000F0EE
:1016900011FB2EE0BD48844208D10121202000F03A
:1016A00009FB0021202000F005FB22E0B84884421D
:1016B00008D10121402000F0FDFA0021402000F077
:1016C000F9FA16E0B348844208D10121802000F0E5
:1016D000F1FA0021802000F0EDFA0AE0AE488442E1
:1016E00007D10121801500F0E5FA0021A01500F0D6
:1016F000E1FA10BD10B50121084600F0DBFA002127
:10170000012000F0D7FA10BD2DE9F0410246002576
:101710000026002000230024002791F803C00CF0CD
:101720000F0591F803C00CF0100CBCF1000F03D0B2
:1017300091F802C04CEA050591F800C0BCF1000F19
:1017400031D0146800202BE04FF0010C0CFA00F3AC
:10175000B1F800C00CEA03069E4220D183004FF08E
:101760000F0C0CFA03F7BC4305FA03FC4CEA040423
:1017700091F803C0BCF1280F06D14FF0010C0CFA10
:1017800000FCC2F814C00AE091F803C0BCF1480F95
:1017900005D14FF0010C0CFA00FCC2F810C0401C3F
:1017A0000828D1D31460B1F800C0BCF1FF0F34DDBC
:1017B000546800202EE000F1080C4FF0010808FAF0
:1017C0000CF3B1F800C00CEA03069E4221D183005D
:1017D0004FF00F0C0CFA03F7BC4305FA03FC4CEA7C
:1017E000040491F803C0BCF1280F05D100F1080CE6
:1017F00008FA0CF8C2F8148091F803C0BCF1480F45
:1018000007D100F1080C4FF0010808FA0CF8C2F8F3
:101810001080401C0828CED35460BDE8F0814FF6FC
:10182000FF710180022181700421C170704702465E
:10183000002093680B400BB1012000E000207047AE
:101840000146886880B2704702460020D3680B408A
:101850000BB1012000E0002070470146C86880B24B
:10186000704701617047416170470AB1016100E052
:1018700041617047C16070474FF480320A43826112
:101880008161826182698269704702460020434B10
:1018900018684FF68073184040EA021008433F4B27
:1018A000186070473E49C8617047F0B50A4600238A
:1018B00000240021002500F00046B6F1004F02D1BF
:1018C000364EF16901E0354E7168C0F3034583B2CD
:1018D00000F44016B6F5401F08D121F070612F4E7C
:1018E000766826F070662D4F7E6012E000F4801658
:1018F000B6F5801F06D1032606FA05F4A14341F090
:10190000706106E0460D360103FA06F6B14341F078
:10191000706122B1460D360103FA06F6314300F03C
:101920000046B6F1004F02D11C4EF16101E01B4EA2
:101930007160F0BD30B500228B071C0F0F2303FA36
:1019400004F2164B08338C1053F824309343134C95
:1019500008348D1044F8253023468C1053F8243079
:101960008C07240F00FA04F423430C4C08348D1028
:1019700044F8253030BD0A49DC310860704700006A
:1019800000080140000C014000100140001401401B
:1019900000180140001C01400020014000000140EF
:1019A00000002042DF48006840F00100DD49086087
:1019B00008464068DC490840DA4948600846006843
:1019C000DA490840D74908600846006820F48020BA
:1019D00008600846406820F4FE0048604FF41F008D
:1019E00088607047CF49096821F48031CD4A116081
:1019F0001146096821F480211160B0F5803F03D0C1
:101A0000B0F5802F0ED106E0C649096841F4803157
:101A1000C44A116007E0C349096841F4A021C14AE2
:101A2000116000E000BF00BF704710B50146002202
:101A3000002300204A11012A02D1BA4C236806E093
:101A4000022A02D1B74C236A01E0B64C636A01F066
:101A50001F02012494401C400CB1012000E0002032
:101A600010BD38B5002000900024002500BF3120B3
:101A7000FFF7DBFF05460098401C00900098B0F58A
:101A8000A06F01D0002DF2D03120FFF7CEFF08B1BA
:101A9000012400E00024204638BD01460020A14A70
:101AA000106820F0F80040EAC10010607047A049BB
:101AB00008607047024600209A4B586820F47C105A
:101AC00042EA01031843974B5860704798490866EB
:101AD000704701460020934A506820F003000843F5
:101AE000506070478F48406800F00C007047014616
:101AF00000208C4A506820F0F00008435060704786
:101B000001460020874A506820F4E0600843506096
:101B1000704701460020834A506820F4605040EA34
:101B2000C1005060704729B17E4A527A02437D4B12
:101B30005A7204E07B4A527A82437A4B5A72704757
:101B40007B49D8310860704701460020754A5068CB
:101B500020F440400843506070470021714A203211
:101B60001170704A82F82010012802D004280AD18E
:101B700004E001216B4A2032117005E00521694A19
:101B80002032117000E000BF00BF70476949086053
:101B900070476449096A0143624A116270476549A6
:101BA00044390860704730B500210022002400232A
:101BB0005C4D6D6805F00C0121B1042905D00829A0
:101BC00023D105E05C4D056022E05B4D05601FE020
:101BD000544D6D6805F47012524D6D6805F48034F3
:101BE000022505EB92421CB9544D554305600BE0AC
:101BF0004C4D6D6805F400351DB1504D55430560E1
:101C000002E04D4D5543056002E04B4D056000BFBD
:101C100000BF444D6D6805F0F0010909484D6B5C4B
:101C20000568DD4045603F4D6D6805F4E061090AD7
:101C3000434D6B5C4568DD4085603A4D6D6805F449
:101C40006051C90A3E4D6B5C4568DD40C560354D4D
:101C50006D6805F44041890B3A4D6B5CC568B5FB76
:101C6000F3F5056130BD29B12E4A526902432D4B6F
:101C70005A6104E02B4A526982432A4B5A617047E9
:101C800029B1284A92690243264B9A6104E0254A09
:101C900092698243234B9A61704729B1214AD269E4
:101CA0000243204BDA6104E01E4AD26982431D4B95
:101CB000DA61704729B11B4AD2680243194BDA60D6
:101CC00004E0184AD2688243164BDA60704729B1A3
:101CD000144A12690243134B1A6104E0114A126953
:101CE0008243104B1A6170471249403908607047AF
:101CF0000F49C86470470B49C87170470948406A6A
:101D000040F0807007494862704701460020054A4C
:101D100092680A400AB1012000E0002070470149A2
:101D200088727047001002400000FFF8FFFFF6FEC7
:101D3000000042428004424200127A0000093D0045
:101D4000780000208800002010B50446FB4884423B
:101D500009D101218803FFF7ADFF00214FF4804036
:101D6000FFF7A8FF32E0F648844209D10121480478
:101D7000FFF7ADFF00214FF40030FFF7A8FF25E08B
:101D8000F048844209D101218804FFF7A0FF002117
:101D90004FF48020FFF79BFF18E0EB48844209D105
:101DA0000121C804FFF793FF00214FF40020FFF743
:101DB0008EFF0BE0E548844208D101210805FFF7BA
:101DC00086FF00214FF48010FFF781FF10BD2DE941
:101DD000F04786B005460E460024A24600BFA14645
:101DE0000027B08900B100BF2F462C8A4CF6FF7047
:101DF0000440F08804432C82AC894EF6F310044072
:101E0000B08831890843718908430443AC81AC8AA6
:101E10004FF6FF400440B0890443AC8201A8FFF7AD
:101E2000C2FEC648874202D1DDF810A001E0DDF80D
:101E30000CA0A88900F4004040B10AEBCA0000EBF6
:101E40000A1031684900B0FBF1F807E00AEBCA005C
:101E500000EB0A1031688900B0FBF1F86420B8FB90
:101E6000F0F004012009642101FB1089A88900F425
:101E7000004040B1322000EBC900B0FBF1F000F0AF
:101E80000700044308E0322000EB09106421B0FB96
:101E9000F1F000F00F0004432C8106B0BDE8F0879C
:101EA0004FF41651016000218180C18001810C2115
:101EB000418100218181704710B502460020108ABF
:101EC0004FF2FF0318400B884C8823438C88234330
:101ED000CC8823431843108210BD0021018041802B
:101EE0008180C180704721B1828942F40052828191
:101EF00004E082894DF6FF731A4082817047F0B585
:101F00000346002400260025002040F66A17B94247
:101F100000D100BF1846C1F3421401F01F0601278B
:101F200007FA06F5012C01D10C3004E0022C01D196
:101F3000103000E014301AB107682F43076002E048
:101F40000768AF430760F0BD1AB1838A0B438382F1
:101F500002E0838A8B4383827047028A4FF6F073D4
:101F60001A400282028A0A430282704782894FF233
:101F7000FF731A40828182890A438281704721B1AE
:101F8000828942F00202828104E082894FF6FD7369
:101F90001A4082817047028A4FF6DF731A4002822C
:101FA000028A0A430282704721B1028A42F48042C7
:101FB000028204E0028A4BF6FF731A4002827047E5
:101FC000C1F308028280704701468888C0F3080088
:101FD0007047818941F0010181817047028BD2B243
:101FE0000283028B42EA012202837047028B02F4D1
:101FF0007F420283028B0A430283704721B1828AA7
:1020000042F02002828204E0828A4FF6DF731A4097
:102010008282704721B1828A42F01002828204E0FB
:10202000828A4FF6EF731A408282704721B1828A0A
:1020300042F00802828204E0828A4FF6F7731A4067
:102040008282704721B1828942F40042828103E09A
:102050008289C2F30E028281704721B1828A42F4E2
:102060000062828204E0828A4FF2FF731A40828209
:102070007047828A4FF6FB731A408282828A0A4333
:102080008282704721B1828A42F00202828204E099
:10209000828A4FF6FD731A40828270470246002002
:1020A000B1F5007F00D100BF13880B400BB10120B8
:1020B00000E00020704701F40072B2F5007F00D10B
:1020C00000BFCA430280704770B502460024002357
:1020D0000025002040F66A16B14200D100BFC1F3CE
:1020E000421501F01F03012606FA03F3012D02D168
:1020F0009689334006E0022D02D1168A334001E072
:10210000968A33400C12012606FA04F416883440ED
:1021100013B10CB1012000E0002070BD10B5002209
:10212000002340F66A14A14200D100BF0A12012424
:102130009440A3B2DC43048010BD0000003801408D
:102140000044004000480040004C00400050004067
:1021500010B50446FE48844208D10121C014FFF79F
:10216000A9FD0021E014FFF7A5FDC4E0B4F1804F04
:1021700008D101210846FFF7AAFD00210120FFF741
:10218000A6FDB8E0F348844208D101210220FFF700
:102190009EFD00210220FFF79AFDACE0EE4884424C
:1021A00008D101210420FFF792FD00210420FFF750
:1021B0008EFDA0E0E948844208D101210820FFF704
:1021C00086FD00210820FFF782FD94E0E448844268
:1021D00008D101211020FFF77AFD00211020FFF720
:1021E00076FD88E0DF48844208D101212020FFF7F6
:1021F0006EFD00212020FFF76AFD7CE0DA48844272
:1022000008D101214014FFF755FD00216014FFF7AC
:1022100051FD70E0D548844209D10121C804FFF77F
:1022200049FD00214FF40020FFF744FD63E0D04852
:10223000844209D101210805FFF73CFD00214FF43C
:102240008010FFF737FD56E0CA48844209D10121CA
:102250004805FFF72FFD00214FF40010FFF72AFD7E
:1022600049E0C548844208D101214020FFF72FFDF5
:1022700000214020FFF72BFD3DE0C048844208D1FB
:1022800001218020FFF723FD00218020FFF71FFDA3
:1022900031E0BB48844208D101218015FFF717FDCA
:1022A0000021A015FFF713FD25E0B648844209D1AF
:1022B00001210804FFF7FEFC00214FF48030FFF7F6
:1022C000F9FC18E0B048844209D101214804FFF725
:1022D000F1FC00214FF40030FFF7ECFC0BE0AB48C1
:1022E000844208D101218804FFF7E4FC00214FF467
:1022F0008020FFF7DFFC10BD00220288944B98423B
:102300000ED0994B98420BD0B0F1804F08D0914B32
:10231000984205D0904B984202D0904B984204D1FD
:102320004FF68F731A404B881A438D4B984207D053
:102330008C4B984204D04FF6FF431A40CB881A4387
:1023400002808B8883850B880385814B98420BD054
:10235000854B984208D08B4B984205D08A4B9842C7
:1023600002D08A4B984201D10B7A038601238382E3
:10237000704770B5002400220023058C4FF6FE76CE
:1023800035400584028C8388048B4FF68F752C4072
:10239000B51E2C400D882C43751E2A400D892A43FA
:1023A0004D882A436A4DA8420BD06F4DA84208D0F1
:1023B000744DA84205D0744DA84202D0734DA84276
:1023C00013D14FF6F7752A404D892A434FF6FB7516
:1023D0002A408D882A434FF6FF652B404FF6FF5564
:1023E0002B408D892B43CD892B4383800483CD885B
:1023F0008586028470BD70B5002400220023058C00
:102400004FF6EF7635400584028C8388048B48F6BE
:10241000FF752C404FF6FF452C400D884FF6FF7698
:1024200006EA05252C434FF6DF752A400D8906EA9A
:1024300005152A434D8806EA05152A43444DA8424E
:1024400002D0494DA8421DD14FF67F752A404D89D3
:102450004FF6FF7606EA05152A434FF6BF752A4068
:102460008D8806EA05152A434FF6FF352B404FF2BB
:10247000FF752B408D8906EA85052B43CD8906EA39
:1024800085052B4383800483CD880587028470BD36
:1024900070B5002400220023058C4FF6FF663540FE
:1024A0000584028C8388848B4FF68F752C404FF601
:1024B000FC752C400D882C434FF6FF552A400D89A2
:1024C0004FF6FF7606EA05252A434D8806EA0525DC
:1024D0002A431F4DA84202D0234DA8421DD14FF2DE
:1024E000FF752A404D894FF6FF7606EA05252A43F7
:1024F0004FF6FF352A408D8806EA05252A434EF619
:10250000FF752B404DF6FF752B408D8906EA0515AA
:102510002B43CD8906EA05152B4383808483CD8820
:102520008587028470BD70B5002200230024058CCD
:102530004EF6FF7635400584038C8488828B48F6FE
:10254000FF752A404FF6FF452A400D8820E0000025
:10255000002C01400004004000080040000C004036
:10256000001000400014004000340140004C0140C5
:10257000005001400054014000180040001C004081
:10258000002000400040014000440140004801405C
:102590004FF6FF7606EA05252A434DF6FF752B40D8
:1025A0000D8906EA05352B434D8806EA05352B4390
:1025B000FA4DA84202D0FA4DA84208D14BF6FF7559
:1025C0002C408D894FF6FF7606EA85152C438480D2
:1025D0008283CD88A0F84050038470BD828B4FF277
:1025E000FF331A408283828B4FF6FF7303EA012385
:1025F0001A4382837047F0B50C461546002200212D
:102600000026078C4EF6FF7C07EA0C070784828BB6
:10261000018C4FF6FF7707EA043640F6FF473A4051
:102620004FF6FF7707EA05273A434FF6FF7707EAA9
:1026300003373A43D94FB8420ED0D94FB8420BD0E6
:10264000B0F1804F08D0D74FB84205D0D64FB8422E
:1026500002D0D64FB84206D14DF6FF77394046F446
:102660008057394305E047F6FF57394044F4805717
:10267000394382830184F0BD828B4FF6F3731A4095
:102680008283828B0A4382837047F0B50C461546DD
:10269000002200210026078C4FF6FF6C07EA0C078A
:1026A0000784828B018C4FF6FF7707EA04264FF6EA
:1026B0000C773A404FF6FF7707EA03172F433A4368
:1026C000B64FB8420ED0B64FB8420BD0B0F1804FE3
:1026D00008D0B44FB84205D0B34FB84202D0B34F80
:1026E000B84206D14FF6FF57394046F48077394358
:1026F00005E04FF2FF57394044F480773943828335
:102700000184F0BD028B4FF2FF331A400283028B2B
:102710004FF6FF7303EA01231A4302837047F0B5B3
:102720000C461546002200210026078C4FF6EF7C50
:1027300007EA0C070784028B018C4FF6FF7707EA44
:10274000041640F6FF473A404FF6FF7707EA033793
:102750003A434FF6FF7707EA05273A438F4FB842CF
:102760000ED08F4FB8420BD0B0F1804F08D08D4FB4
:10277000B84205D08C4FB84202D08C4FB84206D137
:102780004FF6DF77394046F01007394305E04FF642
:102790005F77394044F01007394302830184F0BD6C
:1027A000028B4FF6F3731A400283028B0A430283B3
:1027B0007047F0B50C46154600220021068C4FF6F6
:1027C000FE773E400684028B018C4FF60C76324039
:1027D0007E1C06EA03162E433243704EB0420ED0E2
:1027E0006F4EB0420BD0B0F1804F08D06D4EB0426A
:1027F00005D06D4EB04202D06C4EB04206D14FF6BD
:10280000FD76314044F00106314305E04FF6F576A0
:10281000314044F00106314302830184F0BD70B5BC
:1028200005460C465D4885420ED05D4885420BD07A
:10283000B5F1804F08D05B48854205D05A488542A3
:1028400002D05A48854200D100E000BF208850B92C
:102850002389A28861882846FFF7ABFFE1882846D4
:10286000FFF79EFF25E0208804280AD12389A2884B
:1028700061882846FFF753FFE1882846FFF742FFAB
:1028800017E0208808280AD12389A2886188284671
:10289000FFF7FBFEE1882846FFF7EEFE09E02389FB
:1028A000A28861882846FFF7A6FEE1882846FFF740
:1028B00095FE70BD2DE9F04105460C460026012726
:1028C000608808B9022600E00026A088012801D10E
:1028D000022700E001272088A0B92389A288618807
:1028E0002846FFF766FFE1882846FFF759FF23894E
:1028F0003A4631462846FFF712FFE1882846FFF79F
:1029000001FF13E02389A28861882846FFF707FFAB
:10291000E1882846FFF7F6FE23893A4631462846E5
:10292000FFF747FFE1882846FFF73AFFBDE8F0814F
:102930000A884B881A438B881A43CB881A430B8921
:102940001A434B891A438B891A43A0F844207047D5
:102950004FF6FF71818000210180C18041800172AA
:1029600070470021018041808180C18001814181C7
:102970008181C181704700210180418001218180D6
:102980000021C18001817047002101804180818048
:10299000C18001814181818170470000002C01408C
:1029A000003401400004004000080040000C0040DA
:1029B00021B1028842F00102028004E002884FF651
:1029C000FE731A400280704731B1B0F8442042F4DF
:1029D0000042A0F8442005E0B0F84420C2F30E0203
:1029E000A0F8442070471AB183890B43838102E029
:1029F00083898B43838170478182704741EA020358
:102A0000A0F8483070471AB183890B43838102E0F4
:102A100083898B438381704701894FF6F872114097
:102A2000018170470A46002101894FF68F731940D2
:102A300011430181704730B504460D4629462046B2
:102A4000FFF7F0FF208940F00700208130BD2DE91D
:102A5000F04104460D4616461F46602D06D13B4602
:102A6000012231462046FFF75AFE05E03B4601228F
:102A700031462046FFF79DFE29462046FFF7D2FF4C
:102A8000208940F007002081BDE8F08130B50C4678
:102A900000210189C9B24FF6FF7505EA03251543E8
:102AA00025432943018130BD2DE9F04105460E46FD
:102AB00017469846002443463A4631462846FFF7D3
:102AC000E5FF2C894FF6F870044044F007044FF6F8
:102AD0008F70044044F070042C81BDE8F081F0B5A3
:102AE00004460D4616461F463B46324629462046BA
:102AF000FFF7CCFF208940F480402081F0BD0185A4
:102B0000828270470A46002101884FF68F73194070
:102B1000114301807047F0B50C4615461E46002152
:102B2000002200230189028B038C4FF6F87739408D
:102B300021434FF6FC473A4040F201173A434FF623
:102B4000DD773B404FF6FF7707EA06172F433B43FD
:102B5000018102830384F0BD0A460021018B4FF6F8
:102B60008F7319401143018370470A460021018B7E
:102B700048F6FF7319404FF6FF7303EA0223194327
:102B8000018370470A460021818B4FF68F731940ED
:102B90001143818370470A460021818B48F6FF73F9
:102BA00019404FF6FF7303EA0223194381837047EC
:102BB00021B1028842F08002028004E002884FF6D0
:102BC0007F731A400280704721B1828842F004026C
:102BD000828004E082884FF6FB731A40828070473F
:102BE00021B1828842F00802828004E082884FF698
:102BF000F7731A408280704721B1828842F0010247
:102C0000828004E082884FF6FE731A40828070470B
:102C10000A460021018B4FF6F773194011430183D7
:102C200070470A460021018B4FF2FF7319404FF69F
:102C3000FF7303EA02231943018370470A46002108
:102C4000818B4FF6F77319401143818370470A4611
:102C50000021818B4FF2FF7319404FF6FF7303EA97
:102C600002231943818370470A460021018B4FF6E6
:102C7000FB7319401143018370470A460021018B01
:102C80004FF6FF3319404FF6FF7303EA022319434F
:102C9000018370470A460021818B4FF6FB73194070
:102CA0001143818370470A460021818B4FF6FF3321
:102CB00019404FF6FF7303EA0223194381837047DB
:102CC0000A460021018B4FF67F731940114301839F
:102CD00070470A460021018BC1F30E014FF6FF73C6
:102CE00003EA02231943018370470A460021818BBE
:102CF0004FF67F7319401143818370470A460021C4
:102D0000818BC1F30E014FF6FF7303EA02231943CF
:102D1000818370470A460021018C4FF6FD731940EC
:102D20001143018470470A460021018C4FF6F77366
:102D300019401143018470470A460021018C4FF667
:102D4000DF7319404FF6FF7303EA0213194301843E
:102D500070470A460021018C4FF67F7319404FF6E9
:102D6000FF7303EA02131943018470470A460021E6
:102D7000018C4FF6FF5319404FF6FF7303EA02230D
:102D80001943018470470A460021018C4FF2FF73FA
:102D900019404FF6FF7303EA022319430184704779
:102DA0000A460021018C4DF6FF7319404FF6FF7360
:102DB00003EA023319430184704730B5002301242C
:102DC0008C40A3B2048C9C430484048C02FA01F569
:102DD000ADB22C43048430BD30B5002304248C40B4
:102DE000A3B2048C9C430484048C02FA01F5ADB2B6
:102DF0002C43048430BD70B50346002000241846DF
:102E0000183001258D40ACB21D8CA5431D8409B13D
:102E1000082909D100EB6100056825F070050560FF
:102E20000568154305600EE00D1FC5F34E052844E7
:102E3000056825F4E045056005684FF6FF7606EA6B
:102E400002263543056070BD21B1028842F00202BE
:102E5000028004E002884FF6FD731A40028070473A
:102E600021B1028842F00402028004E002884FF699
:102E7000FB731A400280704721B1828842F08002C1
:102E8000828004E082884FF67F731A408280704708
:102E900002884FF6F7731A40028002880A430280C4
:102EA000704782884FF68F731A40828082880A4367
:102EB0008280704702894FF6F8731A4002810289B6
:102EC0000A430281704702894FF67F731A400281DC
:102ED00002890A4302817047818470478185704767
:102EE000818670470187704781877047A0F840103E
:102EF000704702884FF6FF431A40028002880A4357
:102F0000028070470146888E70470146088F7047DF
:102F10000146888F70470146B1F84000704701466E
:102F2000888C70470146088D704702460020138A3E
:102F30000B400BB1012000E000207047CA43028221
:102F4000704730B50246002000230024158A05EAA8
:102F50000103958905EA010413B10CB1012000E0D9
:102F6000002030BDCA430282704770470FB41CB5C1
:102F7000074B06AA7B4469460090059800F015FAB5
:102F80000020694600F024FA1CBC5DF814FB000028
:102F9000590400002DE9F0410E460446002020624D
:102FA0002046E168884730B3252805D0D4E90121BF
:102FB0009047206A401CF2E7E168204600278847D6
:102FC000050018D0A5F14100192802D820354FF48A
:102FD00000673246294620462760FDF7E3F840B1F6
:102FE000012804D0F61D26F007060836D8E7361D5E
:102FF000D6E72846DAE7206ABDE8F08170B50C46CE
:103000000546012A05D02878800600D5EA69002304
:1030100002E0012305E05B1C934202D2E05C002841
:10302000F9D1A869E618C01AA861286A184428626C
:103030002846AFF3008004E0D5E9012114F8010B24
:103040009047B442F8D32846AFF3008070BD00002B
:103050002DE9F0410646002410687529314616A571
:1030600010D0AFF30080002802DA404213A507E039
:1030700031688A0701D512A502E0490704D511A5D8
:10308000012401E0AFF3008000210A2206F12407A9
:1030900009E0B0FBF2FCB0FBF2F302FB1C003030A5
:1030A00078541846491C0028F3D123462A46304656
:1030B000BDE8F04100F01AB9000000002D0000004A
:1030C0002B0000002000000070B5064600F00AF951
:1030D0000468054630460A22002100F094F92C606D
:1030E00070BD30B505460B462A4613F8014B12F861
:1030F000010B08B1A042F8D01CB1002802D06D1C11
:10310000F1E7284630BD40EA0103024630B59B078F
:1031100010D14FF0013400E008C208C91D1B9D43C7
:1031200015EAC41FF8D013F0FF0102F8011B0DD0FF
:103130001B0AF8E711F8013B002B02F8013B05D010
:1031400011F8013B002B02F8013BF3D130BD10B563
:10315000431C02E010F8011B71B18107FAD14FF056
:10316000013202C88C1A8C4314EAC211F9D0C01A79
:103170000A0603D0C01E10BDC01A10BD0A0401D03B
:10318000801E10BD0902FCD0401E10BD032A40F273
:10319000308010F0030C00F0158011F8013BBCF1F9
:1031A000020F624498BF11F801CB00F8013B38BF11
:1031B00011F8013BA2F1040298BF00F801CB38BF1F
:1031C00000F8013B11F0030300F05581083AC0F00C
:1031D000088051F8043B083A51F804CBA0E80810E5
:1031E000F5E7121D5CBF51F8043B40F8043BAFF318
:1031F0000080D20724BF11F8013B11F801CB48BF72
:1032000011F8012B24BF00F8013B00F801CB48BFA7
:1032100000F8012B70474FF000020429C0F0128023
:1032200010F0030C00F05B81CCF1040CBCF1020F38
:1032300018BF00F8012BA8BF20F8022BA1EB0C014E
:1032400000F04DB95FEAC17C24BF00F8012B00F803
:10325000012B48BF00F8012B704700004FF0013CE4
:1032600050F8042B51F8043B9A4221D1A2EB0C03F5
:10327000934313EACC1317D150F8042B51F8043BB5
:103280009A4215D1A2EB0C03934313EACC130BD152
:1032900050F8042B51F8043B9A4209D1A2EB0C03DD
:1032A000934313EACC13DBD04FF00000704700BF0C
:1032B000D01A01BAB1FA81F101F0180122FA01F035
:1032C000CB40C1F12001DBB2C0B2C01A2CFA01F32D
:1032D000D11A914311EAC311E6D170477047704784
:1032E0007047704700487047F80200202DE9F0470A
:1032F0000D4699469246044600F124080168880666
:1033000004D5E06921F01001216000E00120A8420D
:1033100001DD471B00E00027A1697A1902EB0900D3
:10332000081AA0612078C00602D42046AFF30080BE
:10333000002608E0D4E901211AF806009047206A27
:10334000401C761C20624E45F4DB2078C0060AD56E
:103350002046AFF3008006E0D4E9012130209047F9
:10336000206A401C2062381EA7F10107F4DC07E048
:10337000D4E9012118F805009047206A401C20621A
:10338000281EA5F10105F3DC2046AFF3008020786C
:10339000000602D50220BDE8F0870120FBE700000F
:1033A00001694A1C02610878704700B58FB0CDE909
:1033B00001310021059105497944CDE903101146F9
:1033C0006846FFF7E7FD0FB000BD0000E5FFFFFF17
:1033D0000A6802F8010B0A60704710B5436913B11F
:1033E000AFF3008001E0FFF709FE012010BD127865
:1033F00000F124010A7000224A700122EDE71168F1
:103400004FF0FF32E9E72DE9F04791460F4680463D
:103410000446002614F8015B2DB100F089F800681D
:10342000405DC007F6D12B2D02D02D2D18D0641E83
:103430004A463946204600F083F827B13968A14250
:1034400001D1C7F800804FF0020471050BD540424E
:10345000002803DDFFF746FF0460A007BDE8F08702
:1034600046F48066E4E70028F8DAFFF73BFF0460E3
:103470006FF00040F2E710B5203AC0F00B80B1E8E1
:103480001850203AA0E81850B1E81850A0E8185099
:10349000BFF4F5AF5FEA027C24BFB1E81850A0E8A2
:1034A000185044BF18C918C0BDE810405FEA827CBC
:1034B00024BF51F8043B40F8043B08BF7047D207D3
:1034C00028BF31F8023B48BF11F8012B28BF20F874
:1034D000023B48BF00F8012B70474FF0000200B5D7
:1034E000134694469646203922BFA0E80C50A0E827
:1034F0000C50B1F12001BFF4F7AF090728BFA0E8D5
:103500000C5048BF0CC05DF804EB890028BF40F8A0
:10351000042B08BF704748BF20F8022B11F0804FE2
:1035200018BF00F8012B704700487047F8020020D0
:1035300010B500F079F8001D10BD00BF2501000096
:103540002DE9F05F824615468B4600270AF10104FB
:10355000B9460078302801D09DB113E014F8010B72
:103560000127782803D0582801D045B10AE00DB1D1
:10357000102D07D1002714F8010B102502E00825B3
:1035800000E00A250026B0460EE005FB080005FB1A
:1035900006F101271FFA80F801EB1046B6F5803FCF
:1035A00000D3B94614F8010B294600F041F8002871
:1035B000EBDABBF1000F05D00FB1641E00E05446FA
:1035C000CBF80040B9F1000F06D0FFF78BFE0221C7
:1035D0000160C81EBDE8F09F48EA0640FAE775465C
:1035E000FFF7A2FFAE4605006946534620F00700EC
:1035F000854618B020B5FDF7A7FFBDE820404FF085
:1036000000064FF000074FF000084FF0000B21F0CC
:103610000701AC46ACE8C009ACE8C009ACE8C00999
:10362000ACE8C0098D467047004870471803002079
:103630003A2800D2303820F02002412A01D3A2F1EA
:103640003700884201D34FF0FF30704710B5044671
:10365000AFF300802046BDE81040FCF7C1BD00007C
:1036600010B500290AD00878002807D0054878440A
:10367000FFF7F4FD002801D0002010BD0248784477
:1036800010BD00005A00000052000000353032002A
:103690003131352E3135392E3138302E323133003B
:1036A000434D4E4554000000D8370008000000206C
:1036B0008C0000006C010008643800088C000020B9
:1036C000CC08000088010008100100004300000041
:1036D000F8FFFFFF00404040404040404040414133
:1036E00041414140404040404040404040404040D7
:1036F0004040404040050202020202020202020271
:10370000020202020220202020202020202020026D
:1037100002020202020290909090909010101010FD
:103720001010101010101010101010101010101099
:10373000020202020202888888888888080808082D
:1037400008080808080808080808080808080808F9
:103750000202020240000000000000000000000021
:103760000000000000000000000000000000000059
:103770000000000000000000000000000000000049
:103780000000000000000000000000000000000039
:103790000000000000000000000000000000000029
:1037A0000000000000000000000000000000000019
:1037B0000000000000000000000000000000000009
:1037C00000000000000000000000000000000000F9
:1037D00000000000000000000000010000000000E8
:1037E00000C201000100C8003131352E3135392EBB
:1037F0003138302E323133000000000035303200D5
:10380000000000000000434D4E4554000000000041
:1038100000000000000000000000000000000000A8
:1038200000A24A040000000000000000010203049E
:1038300006070809903600088C360008A0360008F4
:103840000000000000000000000000000000000078
:103850000000000001020304010203040607080936
:043860000204060850
:0400000508000131BD
:00000001FF
