:020000040800F2
:10000000B0080020191400086D0300086F030008F1
:1000100073030008770300087B030008000000005A
:100020000000000000000000000000007F03000846
:100030008103000800000000830300088503000816
:100040003314000833140008331400083314000874
:100050003314000833140008331400083314000864
:100060003314000833140008331400083314000854
:100070003314000833140008331400083314000844
:100080003314000833140008331400083314000834
:100090003314000833140008331400083314000824
:1000A0003314000833140008331400083314000814
:1000B00033140008D5020008210300083314000897
:1000C00033140008331400083314000833140008F4
:1000D00033140008010200086B0200083314000802
:1000E00033140008331400083314000833140008D4
:1000F00033140008331400083314000833140008C4
:1001000033140008331400083314000833140008B3
:1001100033140008331400083314000833140008A3
:100120003314000833140008331400083314000893
:1001300000F002F800F04BF80AA090E8000C8244AE
:100140008344AAF10107DA4501D100F040F8AFF28B
:10015000090EBAE80F0013F0010F18BFFB1A43F0A5
:10016000010318471434000034340000103A24BF4F
:1001700078C878C1FAD8520724BF30C830C144BF0C
:1001800004680C607047000000230024002500264E
:10019000103A28BF78C1FBD8520728BF30C148BFEA
:1001A0000B607047642902F0C986732903F0CF8081
:1001B000002070471FB503F0ADF9040000200021B6
:1001C00003F0C4F9401C60601FBD10B510BD03F002
:1001D0007CF91146FFF7EEFF00F008F803F0ACF9E8
:1001E00003B4FFF7F2FF03BC01F036F800F0CAFFDA
:1001F0004FF4A06001F030F901E000F095FDFCE75C
:1002000010B540F22551604801F0D4FE38B35F4884
:10021000008800F4004030B100205C490880C8210B
:100220005B4802F0A0FF5948008800F40040B0B9D4
:100230000021584802F032FB534801F03BFEC1B2A6
:1002400052480488601C514A1080514801550021D1
:10025000504802F0B7FD01214E4802F01FFB40F26A
:100260002551494801F0D0FE10BD10B540F225518E
:10027000494801F09FFE38B34848008800F4004028
:1002800030B1002045490880C821454802F06BFF85
:100290004248008800F40040B0B90021414802F013
:1002A000FDFA3D4801F006FEC1B23C480488601CDE
:1002B0003A4A10803A48015500213A4802F082FD3E
:1002C0000121384802F0EAFA40F22551324801F0A3
:1002D0009BFE10BD10B501212E4802F0A8FDD0B143
:1002E00001212C4802F0B4FD2848008840F4004069
:1002F0002649088008460088C0F30E002A49088075
:1003000001202A4908700021224802F05BFD0021EB
:10031000204802F0C3FA01211E4802F099FD10BDE9
:1003200010B501211F4802F082FDD0B101211D4806
:1003300002F08EFD1948008840F4004017490880FB
:1003400008460088C0F30E001949088001201949A9
:1003500008700021134802F035FD0021114802F019
:100360009DFA01210F4802F073FD10BD704700BFD8
:10037000FEE700BFFEE700BFFEE700BFFEE77047F5
:10038000704770477047000000380140700000203F
:10039000C000002000040040004400407400002021
:1003A0008801002000080040720000201400002096
:1003B00076000020150000200CB500200190009070
:1003C0006C48006840F480306A49086000BF6948A2
:1003D000006800F4003000900198401C01900098E3
:1003E00018B90198B0F5A06FF1D16248006800F427
:1003F000003010B10120009001E000200090009832
:10040000012843D15C48006840F010005A49086058
:100410000846006820F0030008600846006840F0C5
:1004200002000860534840685249486008464068E6
:1004300048600846406840F480604860084640686C
:1004400020F47C1048600846406840F4E81048609A
:100450000846006840F08070086000BF45480068AA
:1004600000F000700028F9D04248406820F00300F6
:10047000404948600846406840F00200486000BFBC
:100480003C48406800F00C000828F9D10CBD10B5BC
:10049000FFF792FF10BD10B53648006840F001002C
:1004A000344908600846406834490840314948608A
:1004B00008460068324908402E490860084600682E
:1004C00020F4802008600846406820F4FE00486060
:1004D0004FF41F008860FFF7DAFF4FF000602949F2
:1004E000086010BD10B5002100200022214B5B6880
:1004F00003F00C0121B1042906D0082928D107E016
:10050000214B224C236027E01F4B204C236023E02B
:10051000184B5B6803F47010164B5B6803F4803271
:10052000022303EB904022B9194B4343174C23603D
:100530000DE0104B5B6803F4003323B1144B4343CD
:10054000124C236003E0104B4343104C236003E044
:100550000D4B0E4C236000BF00BF064B5B68C3F31E
:1005600003130C4CE15C094B1B68CB40074C236028
:1005700010BD000000100240002002400000FFF803
:10058000FFFFF6FE08ED00E000127A0000000020F8
:1005900000093D000400002010B54FF4E13000F0E8
:1005A00069FE4FF4E13000F0B1FE41F61F416320D7
:1005B00000F03EFD41F61F41632000F069FD00F0B0
:1005C0009BFD10BD70B504460D462946204602F03D
:1005D000FEFC0646304670BD30B5B3B00024FD4881
:1005E0000078002876D0FC480288FC491AA802F05E
:1005F00043FD00201AA9F84A12888854F8A11AA8C5
:1006000002F0E5FC041E0AD01434214601A802F0D1
:10061000F0FC01A802F0CEFCF749086045E0F7A124
:100620001AA802F0D4FC041E17D01034214601A8E9
:1006300002F0DFFCF6A101A802F0B8FD18B100201D
:10064000ED49087131E0F4A101A802F0AFFD0028E6
:100650002BD00120E849087127E0F1A11AA802F087
:10066000B6FC041E0AD01534214601A802F0C1FCD4
:1006700001A802F09FFCE049C88016E0EEA11AA88C
:1006800002F0A5FC041E10D1F0A11AA802F09FFCF4
:10069000041E0AD0D84890F83200022805D10A205A
:1006A000EF490870992033B030BDEEA11AA802F0CE
:1006B0008EFC041E0FD0D048F0A1026801A802F001
:1006C000CBFB01A802F0B9FCC5B2294601A800F095
:1006D0006AFE43E045E0EAA11AA802F078FC041E95
:1006E0001AD0C548007910B101280AD104E0C8A188
:1006F00001A802F07EFC05E0C7A101A802F079FC88
:1007000000E000BF00BF01A802F097FCC5B2294677
:1007100001A800F048FE21E0DEA11AA802F057FC73
:10072000041E0ED0B448C288D4A101A802F094FBE4
:1007300001A802F082FCC5B2294601A800F033FEF0
:100740000CE0DBA11AA802F042FC041E06D0302205
:10075000A949DB4802F0D5FC8820A4E700209D4988
:10076000087000209FE710B50020D64908604FF4BC
:10077000967000F044FD0120D349C1F898014FF470
:10078000967000F03CFD10BD30B5B9B00546CF48BD
:1007900000780F287DD2DFE800F008092432577D69
:1007A000A2C7F3F1F0EFEEEDEC00B9E2C848007833
:1007B00028B9FFF7D8FF0120C549087010E0C548E7
:1007C000007868B1C4A1C748FFF7FCFE28B1022039
:1007D000BE4908700020BE4908700020BD4908705D
:1007E0009EE2BB48007818B90120B949087005E0BD
:1007F0000320B64908700020B549087090E2B4485B
:10080000007878B9B8A102A802F0F3FB02A802F0C0
:1008100014FCC4B2214602A800F0DEFD0120AC4960
:10082000087010E0AB48007868B1B1A1AD48FFF79F
:10083000C9FE28B10420A54908700020A449087009
:100840000020A44908706BE2A148007878B9A9A1FA
:1008500002A802F0CEFB02A802F0EFFBC4B22146D0
:1008600002A800F0B9FD01209949087010E09948EC
:10087000007868B19EA19B48FFF7A4FE28B105202F
:100880009249087000209249087000209149087030
:1008900046E244E28E48007878B998A102A802F0B6
:1008A000A8FB02A802F0C9FBC4B2214602A800F0CE
:1008B00093FD01208649087010E08648007868B1F1
:1008C0008BA18848FFF77EFE28B106207F4908707B
:1008D00000207F49087000207E49087020E27C4893
:1008E000007878B988A102A802F083FB02A802F080
:1008F000A4FBC4B2214602A800F06EFD0120744999
:10090000087010E07348007868B179A17548FFF766
:1009100059FE28B107206D49087000206C49087005
:1009200000206C490870FBE16948007878B979A12A
:1009300002A802F05EFB02A802F07FFBC4B22146CF
:1009400002A800F049FD01206149087010E06148EB
:10095000007868B166A16348FFF734FE28B108202B
:100960005A49087000205A490870002059490870F7
:10097000D6E1A1E17AE153E12DE106E1DFE0FFE715
:1009800053480078A8B91C4A263265A11BA802F07A
:1009900063FA1BA902A802F02CFB02A802F04DFB8F
:1009A000C4B2214602A800F017FD01204849087092
:1009B000C4E04848007858B14DA14A48FFF702FE0C
:1009C00038B1092041490870002041490870B2E05F
:1009D000B4E0ADE01400002072000020C000002050
:1009E0004454555F4346475F424155445241544544
:1009F0005345543D000000001C0000204454555F46
:100A00004346475F504F52545345543D0000000049
:100A10005253323332000000525334383500000054
:100A20004454555F4346475F484541525454494DED
:100A3000455345543D0000004454555F4346475FCD
:100A4000474F475052534346470000004454555FB8
:100A50004346475F455849544346474D4F44450038
:100A6000160000204454555F4346475F42415544B9
:100A7000524154454745543D3F0000002564000065
:100A80004454555F4346475F504F52544745543D89
:100A90003F0000005354525F4454555F4346475F44
:100AA000484541525454494D454745543D3F000047
:100AB0004454555F4346475F53415645000000008C
:100AC0008C000020988121420080214217000020E4
:100AD0006500002015000020534D532052656164CD
:100AE000790000008801002041540D0A0000000038
:100AF0004F4B0000415445300D0A000041542B4338
:100B000053510D0A0000000041542B435245473F0A
:100B10000D0A000041542B43474154543F0D0A0035
:100B200041542B435354543D222573220D0A000097
:100B30000020FB4908700020FA490870F0E0F848EE
:100B4000007878B9F8A102A802F053FA02A802F0DE
:100B500074FAC4B2214602A800F03EFC0120F0491C
:100B6000087011E0EF48007870B1AFF27C01F148F5
:100B7000FFF728FD28B10A20EF4908700020E84956
:100B800008700020E7490870CAE0E548007878B9A5
:100B9000EAA102A802F02DFA02A802F04EFAC4B2AD
:100BA000214602A800F018FC0120DD49087011E080
:100BB000DC48007870B1AFF2C801DE48FFF702FDF3
:100BC00028B10B20DC4908700020D54908700020AE
:100BD000D4490870A4E0D248007878B9DAA102A814
:100BE00002F007FA02A802F028FAC4B2214602A8CD
:100BF00000F0F2FB0120CA49087010E0C9480078F3
:100C000068B1D5A1CB48FFF7DDFC28B10C20CA495B
:100C100008700020C24908700020C24908707FE0B7
:100C2000BF48007878B9CEA102A802F0E2F902A884
:100C300002F003FAC4B2214602A800F0CDFB012065
:100C4000B749087011E0B748007870B1AFF2601191
:100C5000B848FFF7B7FC28B10D20B749087000204D
:100C6000AF4908700020AF49087059E0AC480078DF
:100C700078B9BFA102A802F0BCF902A802F0DDF920
:100C8000C4B2214602A800F0A7FB0120A4490870C5
:100C900011E0A448007870B1AFF2AC11A548FFF79D
:100CA00091FC28B10E20A449087000209C490870CE
:100CB00000209C49087033E099480078C0B9B048DA
:100CC000A0F11403AFA2B0A1009020A802F0C4F8D4
:100CD00020A902A802F08DF902A802F0AEF9C4B270
:100CE000214602A800F078FB01208D49087015E02C
:100CF0008C48007890B1ACA18E48FFF763FC50B1EE
:100D000000208D49087001219D481C3880F8321060
:100D100000208349087000208249087000E000BF6D
:100D200000BF39B030BD704710B50024A14800782D
:100D30000B2872D2DFE800F0060712383C72898A6D
:100D40008BBEE40066E19C48006818B10220994916
:100D5000087002E00320974908705BE1974800782B
:100D600058B900209449783108604FF47A7000F047
:100D700046FA01209149087015E06A48007890B160
:100D8000AFF2A8216B48FFF71DFC48B101208A494A
:100D9000783108600420874908700020874908706E
:100DA00000206049087035E104208249087031E173
:100DB0008248007818BB72481C38FFF7B4FF704AAD
:100DC0001C3A10687E4A116888477D4841F61F41E9
:100DD0008268632090477A4841684FF4E130884741
:100DE000774841F61F41C2686320904774490869FB
:100DF0008047012050490870704908700CE04E4847
:100E0000007818B10020FFF7BFFC05E00820694911
:100E10000870002069490870FCE0FAE06748007833
:100E200040B93022674956481C3802F06AF901205F
:100E300062490870FFF7D0FB0446882C01D0992C3A
:100E400002D100205D490870E4E0E3E0E2E05E48A2
:100E50000078A8B15DA15E4802F0B9F838B15D48EC
:100E60000088032803D109205249087005E0594839
:100E70000088C1B2564800F0AFFA0020524908700D
:100E800028480078A8B151A12A4802F0A0F838B14A
:100E900051480088032803D109204649087005E01D
:100EA0004D480088C1B2234800F07DFA00201D495A
:100EB0000870AFE04148007858B94FF4FA7000F07C
:100EC0009EF9032141A000F087FA01203B490870F8
:100ED00015E01448007890B135A11648FFF772FB71
:100EE00050B1052033490870022125481C3880F88C
:100EF000321000203149087000200A49087089E04A
:100F00002E48007858B94FF4FA7000F078F90521AE
:100F100032A000F061FA01202849087078E061E011
:100F2000650000201500002041542B4349494352DD
:100F30000D0A0000880100201700002041542B43B7
:100F4000494653520D0A000041542B43495053481F
:100F500055540D0A0000000053485554204F4B00D3
:100F600041542B4349504D4F44453D310D0A00003B
:100F700041542B4349504D55583D300D0A00000057
:100F8000380000205443500041542B4349505354DF
:100F90004152543D222573222C222573222C2225D6
:100FA00073220D0A00000000434F4E4E454354206B
:100FB0004F4B0000160000201C81214264000020DD
:100FC000500000208C000020140000202B2B2B0050
:100FD000C0000020720000207600002041544F0D18
:100FE0000A0000000D48007890B1AFF23C010C48B7
:100FF000FFF7E8FA48B108200A49087001210A48B9
:1010000080F8321000200949087000200349087058
:1010100000E000BF00BF10BD7047000015000020B9
:1010200088010020160000201C0000206400002021
:101030007FB505460C460121022000F0A4FDADF865
:101040000850ADF804400020ADF80600ADF80A00E5
:1010500001A9274801F0C6F81D208DF800000020E6
:101060008DF8010001208DF802008DF8030068461C
:1010700000F0F7F901211E4801F0EAFE01221146B5
:101080001B4801F026FC0021194801F007FC7FBD38
:101090007FB505460C460121042000F074FDADF833
:1010A0000850ADF804400020ADF80600ADF80A0085
:1010B00001A9104801F096F81E208DF800000020CC
:1010C0008DF8010001208DF802008DF803006846BC
:1010D00000F0C7F90121074801F0BAFE01221146CC
:1010E000044801F0F6FB0021024801F0D7FB7FBD68
:1010F000000400400008004008B50121082000F06D
:1011000035FD0121082000F031FD0121082000F00B
:101110002DFD2020ADF8000010208DF803000320E5
:101120008DF802006946144800F064FA0120134962
:1011300008604020ADF8000010208DF80300032067
:101140008DF8020069460C4800F054FA01200C4961
:10115000C1F898018020ADF8000010208DF8030040
:1011600003208DF802006946034800F043FA01208D
:101170000249091D086008BD000C0140948121420C
:101180000080214210B56FF0040000F0B4F92E4841
:1011900000682E49B0FBF1F02D4908700846007830
:1011A00000EB4001C1EBC0104FF6FF7101EAC00037
:1011B0002849088010BD0146254A12784A434FF05D
:1011C000E0235A6100229A611A46126942F0010234
:1011D0001A6100BF4FF0E022106900F001021AB15D
:1011E00000F48032002AF5D04FF0E022126922F09C
:1011F00001024FF0E0231A6100229A617047014614
:10120000144A12884A434FF0E0235A6100229A613F
:101210001A46126942F001021A6100BF4FF0E02243
:10122000106900F001021AB100F48032002AF5D0F2
:101230004FF0E022126922F001024FF0E0231A6120
:1012400000229A61704700000000002000127A001E
:10125000660000206800002000BF704700BF6B4A96
:10126000128802F04002002AF9D0C2B2674B1B1D5F
:101270001A80704710B586B00446012144F204007C
:1012800000F074FC4FF40070ADF8140003208DF8EA
:10129000160018208DF8170005A95D4800F0AAF97E
:1012A0004FF48060ADF8140004208DF8170005A9F4
:1012B000574800F09FF925208DF8000003208DF895
:1012C00001008DF8020001208DF80300684600F04F
:1012D000C8F801940020ADF80800ADF80A00ADF898
:1012E0000C00ADF810000C20ADF80E0001A9474825
:1012F00000F0E3FC012240F22551444800F075FD66
:101300000121424800F065FD06B010BD10B586B061
:1013100004460121480400F036FC0121042000F0BD
:1013200025FC0420ADF8140003208DF816001820C9
:101330008DF8170005A9364800F05CF90820ADF8D3
:10134000140004208DF8170005A9314800F052F967
:1013500026208DF8000003208DF801008DF8020092
:1013600001208DF80300684600F07BF8019400200E
:10137000ADF80800ADF80A00ADF80C00ADF81000AB
:101380000C20ADF80E0001A9224800F096FC0122C5
:1013900040F225511F4800F028FD01211D4800F0B2
:1013A00018FD06B010BD70B505460E46002410E0CD
:1013B0004021164800F0F5FD295D144800F076FD47
:1013C00000BF4021114800F0DFFD0128F9D1601C69
:1013D00084B2B442ECDB70BD70B505460E46002405
:1013E00010E040210B4800F0DCFD295D094800F0C9
:1013F0005DFD00BF4021074800F0C6FD0128F9D17E
:10140000601C84B2B442ECDB70BD000000380140C7
:10141000000801400044004009488047094800474F
:10142000FEE7FEE7FEE7FEE7FEE7FEE7FEE7FEE794
:10143000FEE7FEE704480549054A064B70470000F1
:101440009704000831010008B0020020B008002015
:10145000B0040020B004002031490143314A11603A
:10146000704770B5002100230F22C47804B32D4CBF
:10147000246804F4E064C4F5E064210AC1F10403C3
:10148000CA40447804FA03F18478144021430901E6
:10149000254C0678A155047804F01F050124AC40C2
:1014A00005786D11AD0005F1E025C5F8004109E0B2
:1014B000047804F01F050124AC401C4D0678761119
:1014C00045F8264070BD1A4A0A400243154B1B1FBF
:1014D0001A60704739B1134A121D12680243114B4A
:1014E0001B1D1A6006E00F4A121D126882430D4B45
:1014F0001B1D1A607047042808D14FF0E0210969CC
:1015000041F004014FF0E022116107E04FF0E021CB
:10151000096921F004014FF0E022116170470000D9
:101520000000FA050CED00E000E400E080E100E0DE
:1015300080FFFF1F10B50446CC48844208D101212A
:10154000042000F02DFB0021042000F029FB46E0E0
:10155000C748844208D10121082000F021FB002166
:10156000082000F01DFB3AE0C248844208D1012166
:10157000102000F015FB0021102000F011FB2EE0E0
:10158000BD48844208D10121202000F009FB002140
:10159000202000F005FB22E0B848844208D1012158
:1015A000402000F0FDFA0021402000F0F9FA16E09A
:1015B000B348844208D10121802000F0F1FA0021D3
:1015C000802000F0EDFA0AE0AE48844207D1012104
:1015D000801500F0E5FA0021A01500F0E1FA10BD39
:1015E00010B50121084600F0DBFA0021012000F0CF
:1015F000D7FA10BD2DE9F041024600250026002053
:1016000000230024002791F803C00CF00F0591F887
:1016100003C00CF0100CBCF1000F03D091F802C015
:101620004CEA050591F800C0BCF1000F31D01468F8
:1016300000202BE04FF0010C0CFA00F3B1F800C0D1
:101640000CEA03069E4220D183004FF00F0C0CFAE7
:1016500003F7BC4305FA03FC4CEA040491F803C009
:10166000BCF1280F06D14FF0010C0CFA00FCC2F8B7
:1016700014C00AE091F803C0BCF1480F05D14FF047
:10168000010C0CFA00FCC2F810C0401C0828D1D391
:101690001460B1F800C0BCF1FF0F34DD54680020C5
:1016A0002EE000F1080C4FF0010808FA0CF3B1F835
:1016B00000C00CEA03069E4221D183004FF00F0CBC
:1016C0000CFA03F7BC4305FA03FC4CEA040491F856
:1016D00003C0BCF1280F05D100F1080C08FA0CF882
:1016E000C2F8148091F803C0BCF1480F07D100F193
:1016F000080C4FF0010808FA0CF8C2F81080401CE2
:101700000828CED35460BDE8F0814FF6FF71018008
:10171000022181700421C170704702460020936845
:101720000B400BB1012000E00020704701468868A3
:1017300080B2704702460020D3680B400BB10120F5
:1017400000E0002070470146C86880B27047016120
:101750007047416170470AB1016100E04161704723
:10176000C16070474FF480320A43826181618261B7
:1017700082698269704702460020434B18684FF621
:101780008073184040EA021008433F4B18607047CE
:101790003E49C8617047F0B50A4600230024002185
:1017A000002500F00046B6F1004F02D1364EF16937
:1017B00001E0354E7168C0F3034583B200F4401672
:1017C000B6F5401F08D121F070612F4E766826F0E3
:1017D00070662D4F7E6012E000F48016B6F5801F13
:1017E00006D1032606FA05F4A14341F0706106E034
:1017F000460D360103FA06F6B14341F0706122B19D
:10180000460D360103FA06F6314300F00046B6F104
:10181000004F02D11C4EF16101E01B4E7160F0BD22
:1018200030B500228B071C0F0F2303FA04F2164B6E
:1018300008338C1053F824309343134C08348D1024
:1018400044F8253023468C1053F824308C07240F9D
:1018500000FA04F423430C4C08348D1044F825306E
:1018600030BD0A49DC3108607047000000080140C3
:10187000000C01400010014000140140001801401C
:10188000001C0140002001400000014000002042F7
:10189000DF48006840F00100DD4908600846406804
:1018A000DC490840DA49486008460068DA490840DF
:1018B000D74908600846006820F480200860084680
:1018C000406820F4FE0048604FF41F0088607047B5
:1018D000CF49096821F48031CD4A11601146096869
:1018E00021F480211160B0F5803F03D0B0F5802F46
:1018F0000ED106E0C649096841F48031C44A11603E
:1019000007E0C349096841F4A021C14A116000E021
:1019100000BF00BF704710B5014600220023002021
:101920004A11012A02D1BA4C236806E0022A02D1E8
:10193000B74C236A01E0B64C636A01F01F02012430
:1019400094401C400CB1012000E0002010BD38B5CF
:10195000002000900024002500BF3120FFF7DBFFAE
:1019600005460098401C00900098B0F5A06F01D08B
:10197000002DF2D03120FFF7CEFF08B1012400E0A6
:101980000024204638BD01460020A14A106820F0FE
:10199000F80040EAC10010607047A0490860704735
:1019A000024600209A4B586820F47C1042EA01035A
:1019B0001843974B5860704798490866704701462E
:1019C0000020934A506820F003000843506070479D
:1019D0008F48406800F00C007047014600208C4A98
:1019E000506820F0F0000843506070470146002026
:1019F000874A506820F4E060084350607047014611
:101A00000020834A506820F4605040EAC1005060D2
:101A1000704729B17E4A527A02437D4B5A7204E0E4
:101A20007B4A527A82437A4B5A7270477B49D8314B
:101A30000860704701460020754A506820F4404015
:101A40000843506070470021714A20321170704A7B
:101A500082F82010012802D004280AD104E00121D4
:101A60006B4A2032117005E00521694A203211705D
:101A700000E000BF00BF70476949086070476449D3
:101A8000096A0143624A1162704765494439086036
:101A9000704730B500210022002400235C4D6D68A2
:101AA00005F00C0121B1042905D0082923D105E056
:101AB0005C4D056022E05B4D05601FE0544D6D6894
:101AC00005F47012524D6D6805F48034022505EB63
:101AD00092421CB9544D554305600BE04C4D6D6866
:101AE00005F400351DB1504D5543056002E04D4DE4
:101AF0005543056002E04B4D056000BF00BF444DFB
:101B00006D6805F0F0010909484D6B5C0568DD4022
:101B100045603F4D6D6805F4E061090A434D6B5C1B
:101B20004568DD4085603A4D6D6805F46051C90A2D
:101B30003E4D6B5C4568DD40C560354D6D6805F414
:101B40004041890B3A4D6B5CC568B5FBF3F5056107
:101B500030BD29B12E4A526902432D4B5A6104E02F
:101B60002B4A526982432A4B5A61704729B1284A4D
:101B700092690243264B9A6104E0254A92698243A6
:101B8000234B9A61704729B1214AD2690243204B05
:101B9000DA6104E01E4AD26982431D4BDA61704764
:101BA00029B11B4AD2680243194BDA6004E0184A93
:101BB000D2688243164BDA60704729B1144A126921
:101BC0000243134B1A6104E0114A12698243104B1D
:101BD0001A61704712494039086070470F49C8645C
:101BE00070470B49C87170470948406A40F08070DF
:101BF00007494862704701460020054A92680A403A
:101C00000AB1012000E00020704701498872704746
:101C1000001002400000FFF8FFFFF6FE0000424205
:101C20008004424200127A0000093D007800002042
:101C30008800002010B50446FB48844209D10121E8
:101C40008803FFF7ADFF00214FF48040FFF7A8FFA6
:101C500032E0F648844209D101214804FFF7ADFF84
:101C600000214FF40030FFF7A8FF25E0F048844240
:101C700009D101218804FFF7A0FF00214FF4802043
:101C8000FFF79BFF18E0EB48844209D10121C8040B
:101C9000FFF793FF00214FF40020FFF78EFF0BE0CA
:101CA000E548844208D101210805FFF786FF00219D
:101CB0004FF48010FFF781FF10BD2DE9F04786B08B
:101CC00005460E460024A24600BFA1460027B08963
:101CD00000B100BF2F462C8A4CF6FF700440F088FC
:101CE00004432C82AC894EF6F3100440B08831894D
:101CF0000843718908430443AC81AC8A4FF6FF4026
:101D00000440B0890443AC8201A8FFF7C2FEC64874
:101D1000874202D1DDF810A001E0DDF80CA0A8890F
:101D200000F4004040B10AEBCA0000EB0A10316831
:101D30004900B0FBF1F807E00AEBCA0000EB0A101B
:101D400031688900B0FBF1F86420B8FBF0F00401C1
:101D50002009642101FB1089A88900F4004040B1EA
:101D6000322000EBC900B0FBF1F000F007000443A3
:101D700008E0322000EB09106421B0FBF1F000F024
:101D80000F0004432C8106B0BDE8F0874FF41651D4
:101D9000016000218180C18001810C2141810021ED
:101DA0008181704710B502460020108A4FF2FF0370
:101DB00018400B884C8823438C882343CC882343CA
:101DC0001843108210BD0021018041808180C180B4
:101DD000704721B1828942F40052828104E08289F5
:101DE0004DF6FF731A4082817047F0B50346002418
:101DF00000260025002040F66A17B94200D100BF36
:101E00001846C1F3421401F01F06012707FA06F530
:101E1000012C01D10C3004E0022C01D1103000E083
:101E200014301AB107682F43076002E00768AF4318
:101E30000760F0BD1AB1838A0B43838202E0838A74
:101E40008B4383827047028A4FF6F0731A400282F6
:101E5000028A0A430282704782894FF2FF731A4056
:101E6000828182890A438281704721B1828942F04E
:101E70000202828104E082894FF6FD731A4082815A
:101E80007047028A4FF6DF731A400282028A0A43C1
:101E90000282704721B1028A42F48042028204E049
:101EA000028A4BF6FF731A4002827047C1F30802A0
:101EB0008280704701468888C0F308007047818996
:101EC00041F0010181817047028BD2B20283028B03
:101ED00042EA012202837047028B02F47F420283AE
:101EE000028B0A430283704721B1828A42F02002AA
:101EF000828204E0828A4FF6DF731A408282704742
:101F000021B1828A42F01002828204E0828A4FF676
:101F1000EF731A408282704721B1828A42F0080230
:101F2000828204E0828A4FF6F7731A4082827047F9
:101F300021B1828942F40042828103E08289C2F3A6
:101F40000E028281704721B1828A42F4006282824D
:101F500004E0828A4FF2FF731A4082827047828ABD
:101F60004FF6FB731A408282828A0A43828270474C
:101F700021B1828A42F00202828204E0828A4FF614
:101F8000FD731A408282704702460020B1F5007F3F
:101F900000D100BF13880B400BB1012000E00020EE
:101FA000704701F40072B2F5007F00D100BFCA4350
:101FB0000280704770B502460024002300250020EF
:101FC00040F66A16B14200D100BFC1F3421501F0DC
:101FD0001F03012606FA03F3012D02D1968933402F
:101FE00006E0022D02D1168A334001E0968A334082
:101FF0000C12012606FA04F41688344013B10CB111
:10200000012000E0002070BD10B50022002340F642
:102010006A14A14200D100BF0A1201249440A3B265
:10202000DC43048010BD0000003801400044004043
:1020300000480040004C00400050004010B50446ED
:10204000FE48844208D10121C014FFF7A9FD0021F8
:10205000E014FFF7A5FDC4E0B4F1804F08D10121E1
:102060000846FFF7AAFD00210120FFF7A6FDB8E012
:10207000F348844208D101210220FFF79EFD002190
:102080000220FFF79AFDACE0EE48844208D101211E
:102090000420FFF792FD00210420FFF78EFDA0E051
:1020A000E948844208D101210820FFF786FD00217C
:1020B0000820FFF782FD94E0E448844208D1012122
:1020C0001020FFF77AFD00211020FFF776FD88E051
:1020D000DF48844208D101212020FFF76EFD002156
:1020E0002020FFF76AFD7CE0DA48844208D1012114
:1020F0004014FFF755FD00216014FFF751FD70E01B
:10210000D548844209D10121C804FFF749FD0021C7
:102110004FF40020FFF744FD63E0D048844209D12A
:1021200001210805FFF73CFD00214FF48010FFF767
:1021300037FD56E0CA48844209D101214805FFF71E
:102140002FFD00214FF40010FFF72AFD49E0C5489C
:10215000844208D101214020FFF72FFD00214020BB
:10216000FFF72BFD3DE0C048844208D101218020CB
:10217000FFF723FD00218020FFF71FFD31E0BB4862
:10218000844208D101218015FFF717FD0021A01519
:10219000FFF713FD25E0B648844209D10121080468
:1021A000FFF7FEFC00214FF48030FFF7F9FC18E048
:1021B000B048844209D101214804FFF7F1FC002115
:1021C0004FF40030FFF7ECFC0BE0AB48844208D141
:1021D00001218804FFF7E4FC00214FF48020FFF781
:1021E000DFFC10BD00220288944B98420ED0994B20
:1021F00098420BD0B0F1804F08D0914B984205D057
:10220000904B984202D0904B984204D14FF68F7376
:102210001A404B881A438D4B984207D08C4B9842FA
:1022200004D04FF6FF431A40CB881A4302808B88B4
:1022300083850B880385814B98420BD0854B984250
:1022400008D08B4B984205D08A4B984202D08A4BDB
:10225000984201D10B7A038601238382704770B5BF
:10226000002400220023058C4FF6FE7635400584BD
:10227000028C8388048B4FF68F752C40B51E2C4042
:102280000D882C43751E2A400D892A434D882A4308
:102290006A4DA8420BD06F4DA84208D0744DA84299
:1022A00005D0744DA84202D0734DA84213D14FF609
:1022B000F7752A404D892A434FF6FB752A408D88D1
:1022C0002A434FF6FF652B404FF6FF552B408D8973
:1022D0002B43CD892B4383800483CD88858602845C
:1022E00070BD70B5002400220023058C4FF6EF76F8
:1022F00035400584028C8388048B48F6FF752C409A
:102300004FF6FF452C400D884FF6FF7606EA05256F
:102310002C434FF6DF752A400D8906EA05152A433E
:102320004D8806EA05152A43444DA84202D0494D7E
:10233000A8421DD14FF67F752A404D894FF6FF7692
:1023400006EA05152A434FF6BF752A408D8806EA2E
:1023500005152A434FF6FF352B404FF2FF752B40F2
:102360008D8906EA85052B43CD8906EA85052B4331
:1023700083800483CD880587028470BD70B50024F6
:1023800000220023058C4FF6FF6635400584028C41
:102390008388848B4FF68F752C404FF6FC752C404C
:1023A0000D882C434FF6FF552A400D894FF6FF76D6
:1023B00006EA05252A434D8806EA05252A431F4DCE
:1023C000A84202D0234DA8421DD14FF2FF752A40EA
:1023D0004D894FF6FF7606EA05252A434FF6FF356D
:1023E0002A408D8806EA05252A434EF6FF752B40C4
:1023F0004DF6FF752B408D8906EA05152B43CD89D7
:1024000006EA05152B4383808483CD888587028463
:1024100070BD70B5002200230024058C4EF6FF76B7
:1024200035400584038C8488828B48F6FF752A40EA
:102430004FF6FF452A400D8820E00000002C0140A7
:102440000004004000080040000C00400010004064
:102450000014004000340140004C01400050014095
:102460000054014000180040001C004000200040C3
:102470000040014000440140004801404FF6FF7613
:1024800006EA05252A434DF6FF752B400D8906EA1D
:1024900005352B434D8806EA05352B43FA4DA842F6
:1024A00002D0FA4DA84208D14BF6FF752C408D8919
:1024B0004FF6FF7606EA85152C4384808283CD880B
:1024C000A0F84050038470BD828B4FF2FF331A4056
:1024D0008283828B4FF6FF7303EA01231A438283C0
:1024E0007047F0B50C461546002200210026078CE7
:1024F0004EF6FF7C07EA0C070784828B018C4FF6AF
:10250000FF7707EA043640F6FF473A404FF6FF7779
:1025100007EA05273A434FF6FF7707EA03373A43BE
:10252000D94FB8420ED0D94FB8420BD0B0F1804F3E
:1025300008D0D74FB84205D0D64FB84202D0D64FB8
:10254000B84206D14DF6FF77394046F480573943FB
:1025500005E047F6FF57394044F4805739438283FA
:102560000184F0BD828B4FF6F3731A408283828B15
:102570000A4382837047F0B50C46154600220021BD
:102580000026078C4FF6FF6C07EA0C070784828B46
:10259000018C4FF6FF7707EA04264FF60C773A4096
:1025A0004FF6FF7707EA03172F433A43B64FB84277
:1025B0000ED0B64FB8420BD0B0F1804F08D0B44F18
:1025C000B84205D0B34FB84202D0B34FB84206D19B
:1025D0004FF6FF57394046F48077394305E04FF214
:1025E000FF57394044F48077394382830184F0BD3A
:1025F000028B4FF2FF331A400283028B4FF6FF73B8
:1026000003EA01231A4302837047F0B50C461546CE
:10261000002200210026078C4FF6EF7C07EA0C070A
:102620000784028B018C4FF6FF7707EA041640F609
:10263000FF473A404FF6FF7707EA03373A434FF632
:10264000FF7707EA05273A438F4FB8420ED08F4FE6
:10265000B8420BD0B0F1804F08D08D4FB84205D0B2
:102660008C4FB84202D08C4FB84206D14FF6DF777C
:10267000394046F01007394305E04FF65F7739409F
:1026800044F01007394302830184F0BD028B4FF6FA
:10269000F3731A400283028B0A4302837047F0B53A
:1026A0000C46154600220021068C4FF6FE773E4070
:1026B0000684028B018C4FF60C7632407E1C06EAB3
:1026C00003162E433243704EB0420ED06F4EB042CE
:1026D0000BD0B0F1804F08D06D4EB04205D06D4E9A
:1026E000B04202D06C4EB04206D14FF6FD7631407A
:1026F00044F00106314305E04FF6F576314044F0F1
:102700000106314302830184F0BD70B505460C46D5
:102710005D4885420ED05D4885420BD0B5F1804FB3
:1027200008D05B48854205D05A48854202D05A48B5
:10273000854200D100E000BF208850B92389A288DB
:1027400061882846FFF7ABFFE1882846FFF79EFF28
:1027500025E0208804280AD12389A2886188284698
:10276000FFF753FFE1882846FFF742FF17E0208874
:1027700008280AD12389A28861882846FFF7FBFE32
:10278000E1882846FFF7EEFE09E02389A2886188E8
:102790002846FFF7A6FEE1882846FFF795FE70BDA4
:1027A0002DE9F04105460C4600260127608808B94E
:1027B000022600E00026A088012801D1022700E0BF
:1027C00001272088A0B92389A28861882846FFF7BD
:1027D00066FFE1882846FFF759FF23893A463146CC
:1027E0002846FFF712FFE1882846FFF701FF13E0B4
:1027F0002389A28861882846FFF707FFE1882846D9
:10280000FFF7F6FE23893A4631462846FFF747FF91
:10281000E1882846FFF73AFFBDE8F0810A884B8837
:102820001A438B881A43CB881A430B891A434B8966
:102830001A438B891A43A0F8442070474FF6FF7162
:10284000818000210180C180418001727047002198
:10285000018041808180C180018141818181C1816C
:102860007047002101804180012181800021C180C9
:10287000018170470021018041808180C1800181F8
:102880004181818170470000002C014000340140EB
:102890000004004000080040000C004021B1028804
:1028A00042F00102028004E002884FF6FE731A40F3
:1028B0000280704731B1B0F8442042F40042A0F8E1
:1028C000442005E0B0F84420C2F30E02A0F84420F2
:1028D00070471AB183890B43838102E083898B435C
:1028E000838170478182704741EA0203A0F8483033
:1028F00070471AB183890B43838102E083898B433C
:102900008381704701894FF6F87211400181704749
:102910000A46002101894FF68F7319401143018146
:10292000704730B504460D4629462046FFF7F0FFB4
:10293000208940F00700208130BD2DE9F041044698
:102940000D4616461F46602D06D13B4601223146F4
:102950002046FFF75AFE05E03B460122314620465D
:10296000FFF79DFE29462046FFF7D2FF208940F061
:1029700007002081BDE8F08130B50C4600210189B7
:10298000C9B24FF6FF7505EA0325154325432943D0
:10299000018130BD2DE9F04105460E4617469846A7
:1029A000002443463A4631462846FFF7E5FF2C8986
:1029B0004FF6F870044044F007044FF68F7004405F
:1029C00044F070042C81BDE8F081F0B504460D465A
:1029D00016461F463B46324629462046FFF7CCFFA7
:1029E000208940F480402081F0BD018582827047BB
:1029F0000A46002101884FF68F7319401143018068
:102A00007047F0B50C4615461E46002100220023F3
:102A10000189028B038C4FF6F877394021434FF63A
:102A2000FC473A4040F201173A434FF6DD773B400E
:102A30004FF6FF7707EA06172F433B4301810283D6
:102A40000384F0BD0A460021018B4FF68F731940B5
:102A50001143018370470A460021018B48F6FF733A
:102A600019404FF6FF7303EA0223194301837047AD
:102A70000A460021818B4FF68F73194011438183E1
:102A800070470A460021818B48F6FF7319404FF6C4
:102A9000FF7303EA022319438183704721B102883F
:102AA00042F08002028004E002884FF67F731A40F1
:102AB0000280704721B1828842F00402828004E0E3
:102AC00082884FF6FB731A408280704721B182885A
:102AD00042F00802828004E082884FF6F7731A40C1
:102AE0008280704721B1828842F00102828004E036
:102AF00082884FF6FE731A40828070470A46002192
:102B0000018B4FF6F77319401143018370470A4652
:102B10000021018B4FF2FF7319404FF6FF7303EA58
:102B200002231943018370470A460021818B4FF627
:102B3000F77319401143818370470A460021818B46
:102B40004FF2FF7319404FF6FF7303EA0223194354
:102B5000818370470A460021018B4FF6FB731940B1
:102B60001143018370470A460021018B4FF6FF3362
:102B700019404FF6FF7303EA02231943018370479C
:102B80000A460021818B4FF6FB7319401143818364
:102B900070470A460021818B4FF6FF3319404FF6EC
:102BA000FF7303EA02231943818370470A46002119
:102BB000018B4FF67F7319401143018370470A461A
:102BC0000021018BC1F30E014FF6FF7303EA0223CC
:102BD0001943018370470A460021818B4FF67F73AA
:102BE00019401143818370470A460021818BC1F34C
:102BF0000E014FF6FF7303EA0223194381837047E6
:102C00000A460021018C4FF6FD73194011430184DF
:102C100070470A460021018C4FF6F77319401143A3
:102C2000018470470A460021018C4FF6DF7319407A
:102C30004FF6FF7303EA02131943018470470A46F3
:102C40000021018C4FF67F7319404FF6FF7303EAA2
:102C500002131943018470470A460021018C4FF684
:102C6000FF5319404FF6FF7303EA0223194301840F
:102C700070470A460021018C4FF2FF7319404FF64E
:102C8000FF7303EA02231943018470470A460021B7
:102C9000018C4DF6FF7319404FF6FF7303EA0233C0
:102CA00019430184704730B5002301248C40A3B23E
:102CB000048C9C430484048C02FA01F5ADB22C43CD
:102CC000048430BD30B5002304248C40A3B2048CAE
:102CD0009C430484048C02FA01F5ADB22C430484B5
:102CE00030BD70B503460020002418461830012579
:102CF0008D40ACB21D8CA5431D8409B1082909D1B2
:102D000000EB6100056825F0700505600568154356
:102D100005600EE00D1FC5F34E052844056825F437
:102D2000E045056005684FF6FF7606EA0226354362
:102D3000056070BD21B1028842F00202028004E009
:102D400002884FF6FD731A400280704721B1028855
:102D500042F00402028004E002884FF6FB731A403E
:102D60000280704721B1828842F08002828004E0B4
:102D700082884FF67F731A408280704702884FF630
:102D8000F7731A40028002880A43028070478288E3
:102D90004FF68F731A40828082880A438280704780
:102DA00002894FF6F8731A40028102890A430281B0
:102DB000704702894FF67F731A40028102890A43E5
:102DC0000281704781847047818570478186704792
:102DD0000187704781877047A0F8401070470288CC
:102DE0004FF6FF431A40028002880A430280704770
:102DF0000146888E70470146088F70470146888FCC
:102E000070470146B1F8400070470146888C704712
:102E10000146088D704702460020138A0B400BB113
:102E2000012000E000207047CA430282704730B59D
:102E30000246002000230024158A05EA0103958933
:102E400005EA010413B10CB1012000E0002030BDFF
:102E5000CA430282704770470FB41CB5074B06AADD
:102E60007B4469460090059800F047FA00206946C7
:102E700000F056FA1CBC5DF814FB0000BD04000015
:102E80002DE9F0410E460446002020622046E1680C
:102E9000884730B3252805D0D4E901219047206A1E
:102EA000401CF2E7E168204600278847050018D05B
:102EB000A5F14100192802D820354FF400673246A9
:102EC000294620462760FDF76DF940B1012804D05E
:102ED000F61D26F007060836D8E7361DD6E7284641
:102EE000DAE7206ABDE8F08170B50C460546012A94
:102EF00005D02878800600D5EA69002302E0012386
:102F000005E05B1C934202D2E05C0028F9D1A8697D
:102F1000E618C01AA861286A184428622846AFF348
:102F2000008004E0D5E9012114F8010B9047B44278
:102F3000F8D32846AFF3008070BD00002DE9F041C2
:102F40000646002410687529314616A510D0AFF347
:102F50000080002802DA404213A507E031688A07A2
:102F600001D512A502E0490704D511A5012401E00D
:102F7000AFF3008000210A2206F1240709E0B0FB2C
:102F8000F2FCB0FBF2F302FB1C0030307854184620
:102F9000491C0028F3D123462A463046BDE8F041BB
:102FA00000F04CB9000000002D0000002B000000D4
:102FB0002000000070B5064600F03CF904680546A4
:102FC00030460A22002100F0C6F92C6070BD30B5F1
:102FD00005460B462A4613F8014B12F8010B08B1BF
:102FE000A042F8D01CB1002802D06D1CF1E72846A1
:102FF00030BD40EA0103024630B59B0710D14FF0C7
:10300000013400E008C208C91D1B9D4315EAC41F16
:10301000F8D013F0FF0102F8011B0DD01B0AF8E7EE
:1030200011F8013B002B02F8013B05D011F8013BE0
:10303000002B02F8013BF3D130BD10B5431C02E078
:1030400010F8011B71B18107FAD14FF0013202C8AB
:103050008C1A8C4314EAC211F9D0C01A0A0603D0A4
:10306000C01E10BDC01A10BD0A0401D0801E10BDC4
:103070000902FCD0401E10BD032A40F2308010F03F
:10308000030C00F0158011F8013BBCF1020F624403
:1030900098BF11F801CB00F8013B38BF11F8013B94
:1030A000A2F1040298BF00F801CB38BF00F8013B41
:1030B00011F0030300F02580083AC0F0088051F8B1
:1030C000043B083A51F804CBA0E80810F5E7121DBC
:1030D0005CBF51F8043B40F8043BAFF30080D207DB
:1030E00024BF11F8013B11F801CB48BF11F8012BA7
:1030F00024BF00F8013B00F801CB48BF00F8012BCA
:10310000704710B5203AC0F00B80B1E81850203A53
:10311000A0E81850B1E81850A0E81850BFF4F5AF77
:103120005FEA027C24BFB1E81850A0E8185044BF01
:1031300018C918C0BDE810405FEA827C24BF51F86E
:10314000043B40F8043B08BF7047D20728BF31F862
:10315000023B48BF11F8012B28BF20F8023B48BFB3
:1031600000F8012B70474FF000020429C0F01280D4
:1031700010F0030C00F02981CCF1040CBCF1020F1B
:1031800018BF00F8012BA8BF20F8022BA1EB0C01FF
:1031900000F01BB95FEAC17C24BF00F8012B00F8E6
:1031A000012B48BF00F8012B704700004FF0013C95
:1031B00050F8042B51F8043B9A4221D1A2EB0C03A6
:1031C000934313EACC1317D150F8042B51F8043B66
:1031D0009A4215D1A2EB0C03934313EACC130BD103
:1031E00050F8042B51F8043B9A4209D1A2EB0C038E
:1031F000934313EACC13DBD04FF00000704700BFBD
:10320000D01A01BAB1FA81F101F0180122FA01F0E5
:10321000CB40C1F12001DBB2C0B2C01A2CFA01F3DD
:10322000D11A914311EAC311E6D170477047704734
:103230007047704700487047500200202DE9F04762
:103240000D4699469246044600F124080168880616
:1032500004D5E06921F01001216000E00120A842BE
:1032600001DD471B00E00027A1697A1902EB090084
:10327000081AA0612078C00602D42046AFF300806F
:10328000002608E0D4E901211AF806009047206AD8
:10329000401C761C20624E45F4DB2078C0060AD51F
:1032A0002046AFF3008006E0D4E9012130209047AA
:1032B000206A401C2062381EA7F10107F4DC07E0F9
:1032C000D4E9012118F805009047206A401C2062CB
:1032D000281EA5F10105F3DC2046AFF3008020781D
:1032E000000602D50220BDE8F0870120FBE70000C0
:1032F00001694A1C02610878704700B58FB0CDE9BA
:1033000001310021059105497944CDE903101146A9
:103310006846FFF7B5FD0FB000BD0000E5FFFFFFF9
:103320000A6802F8010B0A60704710B5436913B1CF
:10333000AFF3008001E0FFF7D7FD012010BD127848
:1033400000F124010A7000224A700122EDE71168A1
:103350004FF0FF32E9E72DE9F04791460F468046EE
:103360000446002614F8015B2DB100F057F8006800
:10337000405DC007F6D12B2D02D02D2D18D0641E34
:103380004A463946204600F051F827B13968A14233
:1033900001D1C7F800804FF0020471050BD54042FF
:1033A000002803DDFFF746FF0460A007BDE8F087B3
:1033B00046F48066E4E70028F8DAFFF73BFF046094
:1033C0006FF00040F2E74FF0000200B5134694465C
:1033D0009646203922BFA0E80C50A0E80C50B1F16D
:1033E0002001BFF4F7AF090728BFA0E80C5048BF81
:1033F0000CC05DF804EB890028BF40F8042B08BF1F
:10340000704748BF20F8022B11F0804F18BF00F81A
:10341000012B7047004870475002002010B500F0A3
:1034200079F8001D10BD00BF250100002DE9F05FF7
:10343000824615468B4600270AF10104B9460078FA
:10344000302801D09DB113E014F8010B0127782832
:1034500003D0582801D045B10AE00DB1102D07D195
:10346000002714F8010B102502E0082500E00A25CA
:103470000026B0460EE005FB080005FB06F101271B
:103480001FFA80F801EB1046B6F5803F00D3B9462D
:1034900014F8010B294600F041F80028EBDABBF1E3
:1034A000000F05D00FB1641E00E05446CBF8004079
:1034B000B9F1000F06D0FFF7BDFE02210160C81E62
:1034C000BDE8F09F48EA0640FAE77546FFF7A2FF1D
:1034D000AE4605006946534620F00700854618B001
:1034E00020B5FDF7A7FFBDE820404FF000064FF0E4
:1034F00000074FF000084FF0000B21F00701AC4629
:10350000ACE8C009ACE8C009ACE8C009ACE8C00947
:103510008D46704700487047700200203A2800D25C
:10352000303820F02002412A01D3A2F1370088422E
:1035300001D34FF0FF30704710B50446AFF3008061
:103540002046BDE81040FCF74BBE000010B5002936
:103550000AD00878002807D005487844FFF726FEEF
:10356000002801D0002010BD0248784410BD0000A2
:103570003E00000036000000A836000800000020D1
:103580008C0000006C010008343700088C0000201B
:10359000240800008801000810010000430000001A
:1035A000F8FFFFFF00404040404040404040414164
:1035B0004141414040404040404040404040404008
:1035C00040404040400502020202020202020202A2
:1035D000020202020220202020202020202020029F
:1035E000020202020202909090909090101010102F
:1035F00010101010101010101010101010101010CB
:10360000020202020202888888888888080808085E
:10361000080808080808080808080808080808082A
:103620000202020240000000000000000000000052
:10363000000000000000000000000000000000008A
:10364000000000000000000000000000000000007A
:10365000000000000000000000000000000000006A
:10366000000000000000000000000000000000005A
:10367000000000000000000000000000000000004A
:10368000000000000000000000000000000000003A
:10369000000000000000000000000000000000002A
:1036A000000000000000000000A24A04000000002A
:1036B00000000000010203040607080900000100E1
:1036C0000000000000C201000100C8003232312EAB
:1036D0003232362E3139392E3937000000000000E1
:1036E00035303200000000000000434D4E455400CC
:1036F0000000000000000000751200080D13000813
:103700003110000891100008F910000800000000B6
:1037100000000000000000000000000000000000A9
:103720000000000001020304010203040607080967
:043730000204060881
:0400000508000131BD
:00000001FF
